{
  "contractName": "ProductTracking",
  "abi": [
    {
      "anonymous": false,
      "inputs": [
        {
          "indexed": true,
          "internalType": "uint256",
          "name": "productId",
          "type": "uint256"
        },
        {
          "indexed": true,
          "internalType": "address",
          "name": "owner",
          "type": "address"
        },
        {
          "indexed": false,
          "internalType": "string",
          "name": "manufacturer",
          "type": "string"
        },
        {
          "indexed": false,
          "internalType": "string",
          "name": "origin",
          "type": "string"
        },
        {
          "indexed": false,
          "internalType": "string",
          "name": "dataHash",
          "type": "string"
        }
      ],
      "name": "ProductCreated",
      "type": "event"
    },
    {
      "anonymous": false,
      "inputs": [
        {
          "indexed": true,
          "internalType": "uint256",
          "name": "productId",
          "type": "uint256"
        },
        {
          "indexed": true,
          "internalType": "address",
          "name": "from",
          "type": "address"
        },
        {
          "indexed": true,
          "internalType": "address",
          "name": "to",
          "type": "address"
        }
      ],
      "name": "ProductTransferred",
      "type": "event"
    },
    {
      "anonymous": false,
      "inputs": [
        {
          "indexed": true,
          "internalType": "uint256",
          "name": "productId",
          "type": "uint256"
        },
        {
          "indexed": false,
          "internalType": "string",
          "name": "dataHash",
          "type": "string"
        }
      ],
      "name": "ProductUpdated",
      "type": "event"
    },
    {
      "inputs": [],
      "name": "productCount",
      "outputs": [
        {
          "internalType": "uint256",
          "name": "",
          "type": "uint256"
        }
      ],
      "stateMutability": "view",
      "type": "function",
      "constant": true
    },
    {
      "inputs": [
        {
          "internalType": "uint256",
          "name": "",
          "type": "uint256"
        }
      ],
      "name": "products",
      "outputs": [
        {
          "internalType": "uint256",
          "name": "id",
          "type": "uint256"
        },
        {
          "internalType": "string",
          "name": "manufacturer",
          "type": "string"
        },
        {
          "internalType": "string",
          "name": "origin",
          "type": "string"
        },
        {
          "internalType": "address",
          "name": "owner",
          "type": "address"
        },
        {
          "internalType": "uint256",
          "name": "createTime",
          "type": "uint256"
        },
        {
          "internalType": "uint256",
          "name": "updateTime",
          "type": "uint256"
        },
        {
          "internalType": "string",
          "name": "dataHash",
          "type": "string"
        }
      ],
      "stateMutability": "view",
      "type": "function",
      "constant": true
    },
    {
      "inputs": [
        {
          "internalType": "string",
          "name": "_manufacturer",
          "type": "string"
        },
        {
          "internalType": "string",
          "name": "_origin",
          "type": "string"
        },
        {
          "internalType": "string",
          "name": "_dataHash",
          "type": "string"
        }
      ],
      "name": "createProduct",
      "outputs": [
        {
          "internalType": "uint256",
          "name": "",
          "type": "uint256"
        }
      ],
      "stateMutability": "nonpayable",
      "type": "function"
    },
    {
      "inputs": [
        {
          "internalType": "uint256",
          "name": "_productId",
          "type": "uint256"
        },
        {
          "internalType": "address",
          "name": "_to",
          "type": "address"
        }
      ],
      "name": "transferProduct",
      "outputs": [],
      "stateMutability": "nonpayable",
      "type": "function"
    },
    {
      "inputs": [
        {
          "internalType": "uint256",
          "name": "_productId",
          "type": "uint256"
        },
        {
          "internalType": "string",
          "name": "_newDataHash",
          "type": "string"
        }
      ],
      "name": "updateProductData",
      "outputs": [],
      "stateMutability": "nonpayable",
      "type": "function"
    },
    {
      "inputs": [
        {
          "internalType": "uint256",
          "name": "_productId",
          "type": "uint256"
        }
      ],
      "name": "getProduct",
      "outputs": [
        {
          "internalType": "uint256",
          "name": "id",
          "type": "uint256"
        },
        {
          "internalType": "string",
          "name": "manufacturer",
          "type": "string"
        },
        {
          "internalType": "string",
          "name": "origin",
          "type": "string"
        },
        {
          "internalType": "address",
          "name": "owner",
          "type": "address"
        },
        {
          "internalType": "uint256",
          "name": "createTime",
          "type": "uint256"
        },
        {
          "internalType": "uint256",
          "name": "updateTime",
          "type": "uint256"
        },
        {
          "internalType": "string",
          "name": "dataHash",
          "type": "string"
        }
      ],
      "stateMutability": "view",
      "type": "function",
      "constant": true
    }
  ],
  "bytecode": "0x608060405234801561001057600080fd5b50611445806100206000396000f3fe608060405234801561001057600080fd5b50600436106100625760003560e01c80637acc0b2014610067578063a221da651461009d578063b9db15b4146100b9578063d768468b146100ef578063e0f6ef871461011f578063e43059e51461013d575b600080fd5b610081600480360381019061007c9190610ab8565b610159565b6040516100949796959493929190610bc5565b60405180910390f35b6100b760048036038101906100b29190610d7e565b610353565b005b6100d360048036038101906100ce9190610ab8565b6104a4565b6040516100e69796959493929190610bc5565b60405180910390f35b61010960048036038101906101049190610dda565b610715565b6040516101169190610e81565b60405180910390f35b610127610899565b6040516101349190610e81565b60405180910390f35b61015760048036038101906101529190610ec8565b61089f565b005b600060205280600052604060002060009150905080600001549080600101805461018290610f37565b80601f01602080910402602001604051908101604052809291908181526020018280546101ae90610f37565b80156101fb5780601f106101d0576101008083540402835291602001916101fb565b820191906000526020600020905b8154815290600101906020018083116101de57829003601f168201915b50505050509080600201805461021090610f37565b80601f016020809104026020016040519081016040528092919081815260200182805461023c90610f37565b80156102895780601f1061025e57610100808354040283529160200191610289565b820191906000526020600020905b81548152906001019060200180831161026c57829003601f168201915b5050505050908060030160009054906101000a900473ffffffffffffffffffffffffffffffffffffffff16908060040154908060050154908060060180546102d090610f37565b80601f01602080910402602001604051908101604052809291908181526020018280546102fc90610f37565b80156103495780601f1061031e57610100808354040283529160200191610349565b820191906000526020600020905b81548152906001019060200180831161032c57829003601f168201915b5050505050905087565b60008211801561036557506001548211155b6103a4576040517f08c379a000000000000000000000000000000000000000000000000000000000815260040161039b90610fb4565b60405180910390fd5b600080600084815260200190815260200160002090508060030160009054906101000a900473ffffffffffffffffffffffffffffffffffffffff1673ffffffffffffffffffffffffffffffffffffffff163373ffffffffffffffffffffffffffffffffffffffff161461044c576040517f08c379a000000000000000000000000000000000000000000000000000000000815260040161044390611020565b60405180910390fd5b8181600601908161045d91906111ec565b50428160050181905550827fdad7092ee1ca215307c34b5dd865bb1f9be7e1f0110d230eaefd78fa4742903e8360405161049791906112be565b60405180910390a2505050565b6000606080600080600060606000881180156104c257506001548811155b610501576040517f08c379a00000000000000000000000000000000000000000000000000000000081526004016104f890610fb4565b60405180910390fd5b60008060008a81526020019081526020016000209050806000015481600101826002018360030160009054906101000a900473ffffffffffffffffffffffffffffffffffffffff16846004015485600501548660060185805461056390610f37565b80601f016020809104026020016040519081016040528092919081815260200182805461058f90610f37565b80156105dc5780601f106105b1576101008083540402835291602001916105dc565b820191906000526020600020905b8154815290600101906020018083116105bf57829003601f168201915b505050505095508480546105ef90610f37565b80601f016020809104026020016040519081016040528092919081815260200182805461061b90610f37565b80156106685780601f1061063d57610100808354040283529160200191610668565b820191906000526020600020905b81548152906001019060200180831161064b57829003601f168201915b5050505050945080805461067b90610f37565b80601f01602080910402602001604051908101604052809291908181526020018280546106a790610f37565b80156106f45780601f106106c9576101008083540402835291602001916106f4565b820191906000526020600020905b8154815290600101906020018083116106d757829003601f168201915b50505050509050975097509750975097509750975050919395979092949650565b60006001600081548092919061072a9061130f565b91905055506040518060e0016040528060015481526020018581526020018481526020013373ffffffffffffffffffffffffffffffffffffffff1681526020014281526020014281526020018381525060008060015481526020019081526020016000206000820151816000015560208201518160010190816107ad91906111ec565b5060408201518160020190816107c391906111ec565b5060608201518160030160006101000a81548173ffffffffffffffffffffffffffffffffffffffff021916908373ffffffffffffffffffffffffffffffffffffffff1602179055506080820151816004015560a0820151816005015560c082015181600601908161083491906111ec565b509050503373ffffffffffffffffffffffffffffffffffffffff166001547fdd90d2e98dd830548de625ce5ff4339449f8fbc8b94e2c9ea7fcb1570693e7fd86868660405161088593929190611357565b60405180910390a360015490509392505050565b60015481565b6000821180156108b157506001548211155b6108f0576040517f08c379a00000000000000000000000000000000000000000000000000000000081526004016108e790610fb4565b60405180910390fd5b600080600084815260200190815260200160002090508060030160009054906101000a900473ffffffffffffffffffffffffffffffffffffffff1673ffffffffffffffffffffffffffffffffffffffff163373ffffffffffffffffffffffffffffffffffffffff1614610998576040517f08c379a000000000000000000000000000000000000000000000000000000000815260040161098f906113ef565b60405180910390fd5b60008160030160009054906101000a900473ffffffffffffffffffffffffffffffffffffffff169050828260030160006101000a81548173ffffffffffffffffffffffffffffffffffffffff021916908373ffffffffffffffffffffffffffffffffffffffff1602179055504282600501819055508273ffffffffffffffffffffffffffffffffffffffff168173ffffffffffffffffffffffffffffffffffffffff16857fcef86d37ba3dc1d682967cde44d8050488734bf53166725b220b4d2e515e9e9360405160405180910390a450505050565b6000604051905090565b600080fd5b600080fd5b6000819050919050565b610a9581610a82565b8114610aa057600080fd5b50565b600081359050610ab281610a8c565b92915050565b600060208284031215610ace57610acd610a78565b5b6000610adc84828501610aa3565b91505092915050565b610aee81610a82565b82525050565b600081519050919050565b600082825260208201905092915050565b60005b83811015610b2e578082015181840152602081019050610b13565b60008484015250505050565b6000601f19601f8301169050919050565b6000610b5682610af4565b610b608185610aff565b9350610b70818560208601610b10565b610b7981610b3a565b840191505092915050565b600073ffffffffffffffffffffffffffffffffffffffff82169050919050565b6000610baf82610b84565b9050919050565b610bbf81610ba4565b82525050565b600060e082019050610bda600083018a610ae5565b8181036020830152610bec8189610b4b565b90508181036040830152610c008188610b4b565b9050610c0f6060830187610bb6565b610c1c6080830186610ae5565b610c2960a0830185610ae5565b81810360c0830152610c3b8184610b4b565b905098975050505050505050565b600080fd5b600080fd5b7f4e487b7100000000000000000000000000000000000000000000000000000000600052604160045260246000fd5b610c8b82610b3a565b810181811067ffffffffffffffff82111715610caa57610ca9610c53565b5b80604052505050565b6000610cbd610a6e565b9050610cc98282610c82565b919050565b600067ffffffffffffffff821115610ce957610ce8610c53565b5b610cf282610b3a565b9050602081019050919050565b82818337600083830152505050565b6000610d21610d1c84610cce565b610cb3565b905082815260208101848484011115610d3d57610d3c610c4e565b5b610d48848285610cff565b509392505050565b600082601f830112610d6557610d64610c49565b5b8135610d75848260208601610d0e565b91505092915050565b60008060408385031215610d9557610d94610a78565b5b6000610da385828601610aa3565b925050602083013567ffffffffffffffff811115610dc457610dc3610a7d565b5b610dd085828601610d50565b9150509250929050565b600080600060608486031215610df357610df2610a78565b5b600084013567ffffffffffffffff811115610e1157610e10610a7d565b5b610e1d86828701610d50565b935050602084013567ffffffffffffffff811115610e3e57610e3d610a7d565b5b610e4a86828701610d50565b925050604084013567ffffffffffffffff811115610e6b57610e6a610a7d565b5b610e7786828701610d50565b9150509250925092565b6000602082019050610e966000830184610ae5565b92915050565b610ea581610ba4565b8114610eb057600080fd5b50565b600081359050610ec281610e9c565b92915050565b60008060408385031215610edf57610ede610a78565b5b6000610eed85828601610aa3565b9250506020610efe85828601610eb3565b9150509250929050565b7f4e487b7100000000000000000000000000000000000000000000000000000000600052602260045260246000fd5b60006002820490506001821680610f4f57607f821691505b602082108103610f6257610f61610f08565b5b50919050565b7f496e76616c69642070726f647563742049440000000000000000000000000000600082015250565b6000610f9e601283610aff565b9150610fa982610f68565b602082019050919050565b60006020820190508181036000830152610fcd81610f91565b9050919050565b7f4f6e6c79206f776e65722063616e207570646174650000000000000000000000600082015250565b600061100a601583610aff565b915061101582610fd4565b602082019050919050565b6000602082019050818103600083015261103981610ffd565b9050919050565b60008190508160005260206000209050919050565b60006020601f8301049050919050565b600082821b905092915050565b6000600883026110a27fffffffffffffffffffffffffffffffffffffffffffffffffffffffffffffffff82611065565b6110ac8683611065565b95508019841693508086168417925050509392505050565b6000819050919050565b60006110e96110e46110df84610a82565b6110c4565b610a82565b9050919050565b6000819050919050565b611103836110ce565b61111761110f826110f0565b848454611072565b825550505050565b600090565b61112c61111f565b6111378184846110fa565b505050565b5b8181101561115b57611150600082611124565b60018101905061113d565b5050565b601f8211156111a05761117181611040565b61117a84611055565b81016020851015611189578190505b61119d61119585611055565b83018261113c565b50505b505050565b600082821c905092915050565b60006111c3600019846008026111a5565b1980831691505092915050565b60006111dc83836111b2565b9150826002028217905092915050565b6111f582610af4565b67ffffffffffffffff81111561120e5761120d610c53565b5b6112188254610f37565b61122382828561115f565b600060209050601f8311600181146112565760008415611244578287015190505b61124e85826111d0565b8655506112b6565b601f19841661126486611040565b60005b8281101561128c57848901518255600182019150602085019450602081019050611267565b868310156112a957848901516112a5601f8916826111b2565b8355505b6001600288020188555050505b505050505050565b600060208201905081810360008301526112d88184610b4b565b905092915050565b7f4e487b7100000000000000000000000000000000000000000000000000000000600052601160045260246000fd5b600061131a82610a82565b91507fffffffffffffffffffffffffffffffffffffffffffffffffffffffffffffffff820361134c5761134b6112e0565b5b600182019050919050565b600060608201905081810360008301526113718186610b4b565b905081810360208301526113858185610b4b565b905081810360408301526113998184610b4b565b9050949350505050565b7f4f6e6c79206f776e65722063616e207472616e73666572000000000000000000600082015250565b60006113d9601783610aff565b91506113e4826113a3565b602082019050919050565b60006020820190508181036000830152611408816113cc565b905091905056fea2646970667358221220694913f4f23ccb0a8476184350aa42f8388681a024093dce454ff5a3715876f964736f6c63430008130033",
  "immutableReferences": {},
  "source": "// SPDX-License-Identifier: MIT\r\npragma solidity 0.8.19;\r\n\r\ncontract ProductTracking {\r\n    struct Product {\r\n        uint256 id;           // Unique identifier\r\n        string manufacturer;   // Entity that created the product\r\n        string origin;         // Country/location of origin\r\n        address owner;         // Current owner address\r\n        uint256 createTime;    // When product was registered\r\n        uint256 updateTime;    // Last update timestamp\r\n        string dataHash;       // Hash of off-chain data for verification\r\n    }\r\n    \r\n    mapping(uint256 => Product) public products;\r\n    uint256 public productCount;\r\n    \r\n    // Events\r\n    event ProductCreated(\r\n        uint256 indexed productId,\r\n        address indexed owner,\r\n        string manufacturer,\r\n        string origin,\r\n        string dataHash\r\n    );\r\n    \r\n    event ProductTransferred(\r\n        uint256 indexed productId,\r\n        address indexed from,\r\n        address indexed to\r\n    );\r\n    \r\n    event ProductUpdated(\r\n        uint256 indexed productId,\r\n        string dataHash\r\n    );\r\n    \r\n    // Create new product - simplified to only essential data\r\n    function createProduct(\r\n        string memory _manufacturer,\r\n        string memory _origin,\r\n        string memory _dataHash\r\n    ) public returns (uint256) {\r\n        productCount++;\r\n        \r\n        products[productCount] = Product({\r\n            id: productCount,\r\n            manufacturer: _manufacturer,\r\n            origin: _origin,\r\n            owner: msg.sender,\r\n            createTime: block.timestamp,\r\n            updateTime: block.timestamp,\r\n            dataHash: _dataHash\r\n        });\r\n        \r\n        emit ProductCreated(\r\n            productCount,\r\n            msg.sender,\r\n            _manufacturer,\r\n            _origin,\r\n            _dataHash\r\n        );\r\n        \r\n        return productCount;\r\n    }\r\n    \r\n    // Transfer product ownership\r\n    function transferProduct(uint256 _productId, address _to) public {\r\n        require(_productId > 0 && _productId <= productCount, \"Invalid product ID\");\r\n        Product storage product = products[_productId];\r\n        require(msg.sender == product.owner, \"Only owner can transfer\");\r\n        \r\n        address previousOwner = product.owner;\r\n        product.owner = _to;\r\n        product.updateTime = block.timestamp;\r\n        \r\n        emit ProductTransferred(_productId, previousOwner, _to);\r\n    }\r\n    \r\n    // Update product data hash (when off-chain data changes)\r\n    function updateProductData(uint256 _productId, string memory _newDataHash) public {\r\n        require(_productId > 0 && _productId <= productCount, \"Invalid product ID\");\r\n        Product storage product = products[_productId];\r\n        require(msg.sender == product.owner, \"Only owner can update\");\r\n        \r\n        product.dataHash = _newDataHash;\r\n        product.updateTime = block.timestamp;\r\n        \r\n        emit ProductUpdated(_productId, _newDataHash);\r\n    }\r\n    \r\n    // Get product details\r\n    function getProduct(uint256 _productId) public view returns (\r\n        uint256 id,\r\n        string memory manufacturer,\r\n        string memory origin,\r\n        address owner,\r\n        uint256 createTime,\r\n        uint256 updateTime,\r\n        string memory dataHash\r\n    ) {\r\n        require(_productId > 0 && _productId <= productCount, \"Invalid product ID\");\r\n        Product storage product = products[_productId];\r\n        \r\n        return (\r\n            product.id,\r\n            product.manufacturer,\r\n            product.origin,\r\n            product.owner,\r\n            product.createTime,\r\n            product.updateTime,\r\n            product.dataHash\r\n        );\r\n    }\r\n}",
  "sourcePath": "D:\\Projects\\BlockchainSCM\\contracts\\contracts\\ProductTracking.sol",
  "compiler": {
    "name": "solc",
    "version": "0.8.19+commit.7dd6d404.Emscripten.clang"
  },
  "schemaVersion": "3.4.16",
  "updatedAt": "2025-04-17T12:58:35.275Z",
  "networkType": "ethereum",
  "devdoc": {
    "kind": "dev",
    "methods": {},
    "version": 1
  },
  "userdoc": {
    "kind": "user",
    "methods": {},
    "version": 1
  }
}