{
  "contractName": "ProductTracking",
  "abi": [
    {
      "anonymous": false,
      "inputs": [
        {
          "indexed": false,
          "internalType": "uint256",
          "name": "productId",
          "type": "uint256"
        },
        {
          "indexed": false,
          "internalType": "address",
          "name": "manufacturer",
          "type": "address"
        }
      ],
      "name": "ProductCreated",
      "type": "event"
    },
    {
      "anonymous": false,
      "inputs": [
        {
          "indexed": false,
          "internalType": "address",
          "name": "from",
          "type": "address"
        },
        {
          "indexed": false,
          "internalType": "address",
          "name": "to",
          "type": "address"
        },
        {
          "indexed": false,
          "internalType": "uint256",
          "name": "productId",
          "type": "uint256"
        }
      ],
      "name": "ProductTransferred",
      "type": "event"
    },
    {
      "anonymous": false,
      "inputs": [
        {
          "indexed": false,
          "internalType": "uint256",
          "name": "productId",
          "type": "uint256"
        },
        {
          "indexed": false,
          "internalType": "bytes32",
          "name": "newDataHash",
          "type": "bytes32"
        }
      ],
      "name": "ProductUpdated",
      "type": "event"
    },
    {
      "inputs": [],
      "name": "productCount",
      "outputs": [
        {
          "internalType": "uint256",
          "name": "",
          "type": "uint256"
        }
      ],
      "stateMutability": "view",
      "type": "function",
      "constant": true
    },
    {
      "inputs": [
        {
          "internalType": "uint256",
          "name": "",
          "type": "uint256"
        }
      ],
      "name": "products",
      "outputs": [
        {
          "internalType": "uint256",
          "name": "id",
          "type": "uint256"
        },
        {
          "internalType": "string",
          "name": "name",
          "type": "string"
        },
        {
          "internalType": "string",
          "name": "manufacturer",
          "type": "string"
        },
        {
          "internalType": "string",
          "name": "origin",
          "type": "string"
        },
        {
          "internalType": "string",
          "name": "description",
          "type": "string"
        },
        {
          "internalType": "address",
          "name": "owner",
          "type": "address"
        },
        {
          "internalType": "uint256",
          "name": "createTime",
          "type": "uint256"
        },
        {
          "internalType": "uint256",
          "name": "updateTime",
          "type": "uint256"
        },
        {
          "internalType": "bytes32",
          "name": "dataHash",
          "type": "bytes32"
        }
      ],
      "stateMutability": "view",
      "type": "function",
      "constant": true
    },
    {
      "inputs": [
        {
          "internalType": "string",
          "name": "_name",
          "type": "string"
        },
        {
          "internalType": "string",
          "name": "_manufacturer",
          "type": "string"
        },
        {
          "internalType": "string",
          "name": "_origin",
          "type": "string"
        },
        {
          "internalType": "string",
          "name": "_description",
          "type": "string"
        },
        {
          "internalType": "bytes32",
          "name": "_dataHash",
          "type": "bytes32"
        }
      ],
      "name": "createProduct",
      "outputs": [
        {
          "internalType": "uint256",
          "name": "",
          "type": "uint256"
        }
      ],
      "stateMutability": "nonpayable",
      "type": "function"
    },
    {
      "inputs": [
        {
          "internalType": "address",
          "name": "_to",
          "type": "address"
        },
        {
          "internalType": "uint256",
          "name": "_productId",
          "type": "uint256"
        }
      ],
      "name": "transferProduct",
      "outputs": [],
      "stateMutability": "nonpayable",
      "type": "function"
    },
    {
      "inputs": [
        {
          "internalType": "uint256",
          "name": "_productId",
          "type": "uint256"
        },
        {
          "internalType": "bytes32",
          "name": "_newDataHash",
          "type": "bytes32"
        }
      ],
      "name": "updateProductData",
      "outputs": [],
      "stateMutability": "nonpayable",
      "type": "function"
    },
    {
      "inputs": [
        {
          "internalType": "uint256",
          "name": "_productId",
          "type": "uint256"
        }
      ],
      "name": "getProduct",
      "outputs": [
        {
          "internalType": "uint256",
          "name": "id",
          "type": "uint256"
        },
        {
          "internalType": "string",
          "name": "name",
          "type": "string"
        },
        {
          "internalType": "string",
          "name": "manufacturer",
          "type": "string"
        },
        {
          "internalType": "string",
          "name": "origin",
          "type": "string"
        },
        {
          "internalType": "string",
          "name": "description",
          "type": "string"
        },
        {
          "internalType": "address",
          "name": "owner",
          "type": "address"
        },
        {
          "internalType": "uint256",
          "name": "createTime",
          "type": "uint256"
        },
        {
          "internalType": "uint256",
          "name": "updateTime",
          "type": "uint256"
        },
        {
          "internalType": "bytes32",
          "name": "dataHash",
          "type": "bytes32"
        }
      ],
      "stateMutability": "view",
      "type": "function",
      "constant": true
    }
  ],
  "bytecode": "0x608060405234801561001057600080fd5b50611458806100206000396000f3fe608060405234801561001057600080fd5b50600436106100625760003560e01c8063025a42ae146100675780637acc0b2014610083578063b9db15b4146100bb578063cfffaa45146100f3578063e0f6ef8714610123578063f7c1353914610141575b600080fd5b610081600480360381019061007c9190610b54565b61015d565b005b61009d60048036038101906100989190610b94565b6102ad565b6040516100b299989796959493929190610c88565b60405180910390f35b6100d560048036038101906100d09190610b94565b61053b565b6040516100ea99989796959493929190610c88565b60405180910390f35b61010d60048036038101906101089190610e92565b6107f8565b60405161011a9190610f7d565b60405180910390f35b61012b610992565b6040516101389190610f7d565b60405180910390f35b61015b60048036038101906101569190610f98565b610998565b005b3373ffffffffffffffffffffffffffffffffffffffff1660008083815260200190815260200160002060050160009054906101000a900473ffffffffffffffffffffffffffffffffffffffff1673ffffffffffffffffffffffffffffffffffffffff1614610200576040517f08c379a00000000000000000000000000000000000000000000000000000000081526004016101f790611024565b60405180910390fd5b8160008083815260200190815260200160002060050160006101000a81548173ffffffffffffffffffffffffffffffffffffffff021916908373ffffffffffffffffffffffffffffffffffffffff16021790555042600080838152602001908152602001600020600701819055507fd4c698494e479f322b00d87495b6b88db019fd2b663be77331316299f495285d3383836040516102a193929190611044565b60405180910390a15050565b60006020528060005260406000206000915090508060000154908060010180546102d6906110aa565b80601f0160208091040260200160405190810160405280929190818152602001828054610302906110aa565b801561034f5780601f106103245761010080835404028352916020019161034f565b820191906000526020600020905b81548152906001019060200180831161033257829003601f168201915b505050505090806002018054610364906110aa565b80601f0160208091040260200160405190810160405280929190818152602001828054610390906110aa565b80156103dd5780601f106103b2576101008083540402835291602001916103dd565b820191906000526020600020905b8154815290600101906020018083116103c057829003601f168201915b5050505050908060030180546103f2906110aa565b80601f016020809104026020016040519081016040528092919081815260200182805461041e906110aa565b801561046b5780601f106104405761010080835404028352916020019161046b565b820191906000526020600020905b81548152906001019060200180831161044e57829003601f168201915b505050505090806004018054610480906110aa565b80601f01602080910402602001604051908101604052809291908181526020018280546104ac906110aa565b80156104f95780601f106104ce576101008083540402835291602001916104f9565b820191906000526020600020905b8154815290600101906020018083116104dc57829003601f168201915b5050505050908060050160009054906101000a900473ffffffffffffffffffffffffffffffffffffffff16908060060154908060070154908060080154905089565b600060608060608060008060008060008060008c815260200190815260200160002090508060000154816001018260020183600301846004018560050160009054906101000a900473ffffffffffffffffffffffffffffffffffffffff168660060154876007015488600801548780546105b4906110aa565b80601f01602080910402602001604051908101604052809291908181526020018280546105e0906110aa565b801561062d5780601f106106025761010080835404028352916020019161062d565b820191906000526020600020905b81548152906001019060200180831161061057829003601f168201915b50505050509750868054610640906110aa565b80601f016020809104026020016040519081016040528092919081815260200182805461066c906110aa565b80156106b95780601f1061068e576101008083540402835291602001916106b9565b820191906000526020600020905b81548152906001019060200180831161069c57829003601f168201915b505050505096508580546106cc906110aa565b80601f01602080910402602001604051908101604052809291908181526020018280546106f8906110aa565b80156107455780601f1061071a57610100808354040283529160200191610745565b820191906000526020600020905b81548152906001019060200180831161072857829003601f168201915b50505050509550848054610758906110aa565b80601f0160208091040260200160405190810160405280929190818152602001828054610784906110aa565b80156107d15780601f106107a6576101008083540402835291602001916107d1565b820191906000526020600020905b8154815290600101906020018083116107b457829003601f168201915b50505050509450995099509950995099509950995099509950509193959799909294969850565b60006001600081548092919061080d9061110a565b919050555060405180610120016040528060015481526020018781526020018681526020018581526020018481526020013373ffffffffffffffffffffffffffffffffffffffff16815260200142815260200142815260200183815250600080600154815260200190815260200160002060008201518160000155602082015181600101908161089d91906112fe565b5060408201518160020190816108b391906112fe565b5060608201518160030190816108c991906112fe565b5060808201518160040190816108df91906112fe565b5060a08201518160050160006101000a81548173ffffffffffffffffffffffffffffffffffffffff021916908373ffffffffffffffffffffffffffffffffffffffff16021790555060c0820151816006015560e0820151816007015561010082015181600801559050507fe8bb4e90e950f7b76a8c4e472b3b5e01d41c478f9eeaea36b4ba991f51133f916001543360405161097c9291906113d0565b60405180910390a1600154905095945050505050565b60015481565b3373ffffffffffffffffffffffffffffffffffffffff1660008084815260200190815260200160002060050160009054906101000a900473ffffffffffffffffffffffffffffffffffffffff1673ffffffffffffffffffffffffffffffffffffffff1614610a3b576040517f08c379a0000000000000000000000000000000000000000000000000000000008152600401610a3290611024565b60405180910390fd5b806000808481526020019081526020016000206008018190555042600080848152602001908152602001600020600701819055507f7b5841d68542cdd182a97da7bdf9597484b4077d66be2c37d38693d3316b5d6a8282604051610aa09291906113f9565b60405180910390a15050565b6000604051905090565b600080fd5b600080fd5b600073ffffffffffffffffffffffffffffffffffffffff82169050919050565b6000610aeb82610ac0565b9050919050565b610afb81610ae0565b8114610b0657600080fd5b50565b600081359050610b1881610af2565b92915050565b6000819050919050565b610b3181610b1e565b8114610b3c57600080fd5b50565b600081359050610b4e81610b28565b92915050565b60008060408385031215610b6b57610b6a610ab6565b5b6000610b7985828601610b09565b9250506020610b8a85828601610b3f565b9150509250929050565b600060208284031215610baa57610ba9610ab6565b5b6000610bb884828501610b3f565b91505092915050565b610bca81610b1e565b82525050565b600081519050919050565b600082825260208201905092915050565b60005b83811015610c0a578082015181840152602081019050610bef565b60008484015250505050565b6000601f19601f8301169050919050565b6000610c3282610bd0565b610c3c8185610bdb565b9350610c4c818560208601610bec565b610c5581610c16565b840191505092915050565b610c6981610ae0565b82525050565b6000819050919050565b610c8281610c6f565b82525050565b600061012082019050610c9e600083018c610bc1565b8181036020830152610cb0818b610c27565b90508181036040830152610cc4818a610c27565b90508181036060830152610cd88189610c27565b90508181036080830152610cec8188610c27565b9050610cfb60a0830187610c60565b610d0860c0830186610bc1565b610d1560e0830185610bc1565b610d23610100830184610c79565b9a9950505050505050505050565b600080fd5b600080fd5b7f4e487b7100000000000000000000000000000000000000000000000000000000600052604160045260246000fd5b610d7382610c16565b810181811067ffffffffffffffff82111715610d9257610d91610d3b565b5b80604052505050565b6000610da5610aac565b9050610db18282610d6a565b919050565b600067ffffffffffffffff821115610dd157610dd0610d3b565b5b610dda82610c16565b9050602081019050919050565b82818337600083830152505050565b6000610e09610e0484610db6565b610d9b565b905082815260208101848484011115610e2557610e24610d36565b5b610e30848285610de7565b509392505050565b600082601f830112610e4d57610e4c610d31565b5b8135610e5d848260208601610df6565b91505092915050565b610e6f81610c6f565b8114610e7a57600080fd5b50565b600081359050610e8c81610e66565b92915050565b600080600080600060a08688031215610eae57610ead610ab6565b5b600086013567ffffffffffffffff811115610ecc57610ecb610abb565b5b610ed888828901610e38565b955050602086013567ffffffffffffffff811115610ef957610ef8610abb565b5b610f0588828901610e38565b945050604086013567ffffffffffffffff811115610f2657610f25610abb565b5b610f3288828901610e38565b935050606086013567ffffffffffffffff811115610f5357610f52610abb565b5b610f5f88828901610e38565b9250506080610f7088828901610e7d565b9150509295509295909350565b6000602082019050610f926000830184610bc1565b92915050565b60008060408385031215610faf57610fae610ab6565b5b6000610fbd85828601610b3f565b9250506020610fce85828601610e7d565b9150509250929050565b7f4e6f74207468652070726f64756374206f776e65720000000000000000000000600082015250565b600061100e601583610bdb565b915061101982610fd8565b602082019050919050565b6000602082019050818103600083015261103d81611001565b9050919050565b60006060820190506110596000830186610c60565b6110666020830185610c60565b6110736040830184610bc1565b949350505050565b7f4e487b7100000000000000000000000000000000000000000000000000000000600052602260045260246000fd5b600060028204905060018216806110c257607f821691505b6020821081036110d5576110d461107b565b5b50919050565b7f4e487b7100000000000000000000000000000000000000000000000000000000600052601160045260246000fd5b600061111582610b1e565b91507fffffffffffffffffffffffffffffffffffffffffffffffffffffffffffffffff8203611147576111466110db565b5b600182019050919050565b60008190508160005260206000209050919050565b60006020601f8301049050919050565b600082821b905092915050565b6000600883026111b47fffffffffffffffffffffffffffffffffffffffffffffffffffffffffffffffff82611177565b6111be8683611177565b95508019841693508086168417925050509392505050565b6000819050919050565b60006111fb6111f66111f184610b1e565b6111d6565b610b1e565b9050919050565b6000819050919050565b611215836111e0565b61122961122182611202565b848454611184565b825550505050565b600090565b61123e611231565b61124981848461120c565b505050565b5b8181101561126d57611262600082611236565b60018101905061124f565b5050565b601f8211156112b25761128381611152565b61128c84611167565b8101602085101561129b578190505b6112af6112a785611167565b83018261124e565b50505b505050565b600082821c905092915050565b60006112d5600019846008026112b7565b1980831691505092915050565b60006112ee83836112c4565b9150826002028217905092915050565b61130782610bd0565b67ffffffffffffffff8111156113205761131f610d3b565b5b61132a82546110aa565b611335828285611271565b600060209050601f8311600181146113685760008415611356578287015190505b61136085826112e2565b8655506113c8565b601f19841661137686611152565b60005b8281101561139e57848901518255600182019150602085019450602081019050611379565b868310156113bb57848901516113b7601f8916826112c4565b8355505b6001600288020188555050505b505050505050565b60006040820190506113e56000830185610bc1565b6113f26020830184610c60565b9392505050565b600060408201905061140e6000830185610bc1565b61141b6020830184610c79565b939250505056fea264697066735822122048e9792c5f4285330907894b975ffc4aa4f85b18b516169df145b01f2cd401c664736f6c63430008130033",
  "immutableReferences": {},
  "source": "// SPDX-License-Identifier: MIT\r\npragma solidity 0.8.19;\r\n\r\ncontract ProductTracking {\r\n    struct Product {\r\n        uint256 id;\r\n        string name;\r\n        string manufacturer;\r\n        string origin;\r\n        string description;\r\n        address owner;\r\n        uint256 createTime;\r\n        uint256 updateTime;\r\n        bytes32 dataHash;\r\n    }\r\n    \r\n    mapping(uint256 => Product) public products;\r\n    uint256 public productCount;\r\n    \r\n    // Events\r\n    event ProductCreated(uint256 productId, address manufacturer);\r\n    event ProductTransferred(address from, address to, uint256 productId);\r\n    event ProductUpdated(uint256 productId, bytes32 newDataHash);\r\n    \r\n    function createProduct(\r\n        string memory _name, \r\n        string memory _manufacturer, \r\n        string memory _origin, \r\n        string memory _description,\r\n        bytes32 _dataHash\r\n    ) public returns (uint256) {\r\n        productCount++;\r\n        \r\n        products[productCount] = Product({\r\n            id: productCount,\r\n            name: _name,\r\n            manufacturer: _manufacturer,\r\n            origin: _origin,\r\n            description: _description,\r\n            owner: msg.sender,\r\n            createTime: block.timestamp,\r\n            updateTime: block.timestamp,\r\n            dataHash: _dataHash\r\n        });\r\n        \r\n        emit ProductCreated(productCount, msg.sender);\r\n        return productCount;\r\n    }\r\n    \r\n    function transferProduct(address _to, uint256 _productId) public {\r\n        require(products[_productId].owner == msg.sender, \"Not the product owner\");\r\n        \r\n        products[_productId].owner = _to;\r\n        products[_productId].updateTime = block.timestamp;\r\n        \r\n        emit ProductTransferred(msg.sender, _to, _productId);\r\n    }\r\n    \r\n    function updateProductData(uint256 _productId, bytes32 _newDataHash) public {\r\n        require(products[_productId].owner == msg.sender, \"Not the product owner\");\r\n        \r\n        products[_productId].dataHash = _newDataHash;\r\n        products[_productId].updateTime = block.timestamp;\r\n        \r\n        emit ProductUpdated(_productId, _newDataHash);\r\n    }\r\n    \r\n    function getProduct(uint256 _productId) public view returns (\r\n        uint256 id,\r\n        string memory name,\r\n        string memory manufacturer,\r\n        string memory origin,\r\n        string memory description,\r\n        address owner,\r\n        uint256 createTime,\r\n        uint256 updateTime,\r\n        bytes32 dataHash\r\n    ) {\r\n        Product storage product = products[_productId];\r\n        return (\r\n            product.id,\r\n            product.name,\r\n            product.manufacturer,\r\n            product.origin,\r\n            product.description,\r\n            product.owner,\r\n            product.createTime,\r\n            product.updateTime,\r\n            product.dataHash\r\n        );\r\n    }\r\n}",
  "sourcePath": "D:\\Projects\\BlockchainSCM\\contracts\\contracts\\ProductTracking.sol",
  "compiler": {
    "name": "solc",
    "version": "0.8.19+commit.7dd6d404.Emscripten.clang"
  },
  "schemaVersion": "3.4.16",
  "updatedAt": "2025-04-15T12:36:46.755Z",
  "networkType": "ethereum",
  "devdoc": {
    "kind": "dev",
    "methods": {},
    "version": 1
  },
  "userdoc": {
    "kind": "user",
    "methods": {},
    "version": 1
  }
}