{
  "contractName": "AccessControl",
  "abi": [
    {
      "inputs": [],
      "stateMutability": "nonpayable",
      "type": "constructor"
    },
    {
      "anonymous": false,
      "inputs": [
        {
          "indexed": true,
          "internalType": "bytes32",
          "name": "role",
          "type": "bytes32"
        },
        {
          "indexed": true,
          "internalType": "address",
          "name": "account",
          "type": "address"
        }
      ],
      "name": "RoleGranted",
      "type": "event"
    },
    {
      "anonymous": false,
      "inputs": [
        {
          "indexed": true,
          "internalType": "bytes32",
          "name": "role",
          "type": "bytes32"
        },
        {
          "indexed": true,
          "internalType": "address",
          "name": "account",
          "type": "address"
        }
      ],
      "name": "RoleRevoked",
      "type": "event"
    },
    {
      "inputs": [],
      "name": "ADMIN_ROLE",
      "outputs": [
        {
          "internalType": "bytes32",
          "name": "",
          "type": "bytes32"
        }
      ],
      "stateMutability": "view",
      "type": "function",
      "constant": true
    },
    {
      "inputs": [],
      "name": "CONSUMER_ROLE",
      "outputs": [
        {
          "internalType": "bytes32",
          "name": "",
          "type": "bytes32"
        }
      ],
      "stateMutability": "view",
      "type": "function",
      "constant": true
    },
    {
      "inputs": [],
      "name": "DISTRIBUTOR_ROLE",
      "outputs": [
        {
          "internalType": "bytes32",
          "name": "",
          "type": "bytes32"
        }
      ],
      "stateMutability": "view",
      "type": "function",
      "constant": true
    },
    {
      "inputs": [],
      "name": "MANUFACTURER_ROLE",
      "outputs": [
        {
          "internalType": "bytes32",
          "name": "",
          "type": "bytes32"
        }
      ],
      "stateMutability": "view",
      "type": "function",
      "constant": true
    },
    {
      "inputs": [],
      "name": "RETAILER_ROLE",
      "outputs": [
        {
          "internalType": "bytes32",
          "name": "",
          "type": "bytes32"
        }
      ],
      "stateMutability": "view",
      "type": "function",
      "constant": true
    },
    {
      "inputs": [
        {
          "internalType": "address",
          "name": "",
          "type": "address"
        },
        {
          "internalType": "bytes32",
          "name": "",
          "type": "bytes32"
        }
      ],
      "name": "roles",
      "outputs": [
        {
          "internalType": "bool",
          "name": "",
          "type": "bool"
        }
      ],
      "stateMutability": "view",
      "type": "function",
      "constant": true
    },
    {
      "inputs": [
        {
          "internalType": "address",
          "name": "_account",
          "type": "address"
        },
        {
          "internalType": "bytes32",
          "name": "_role",
          "type": "bytes32"
        }
      ],
      "name": "grantRole",
      "outputs": [],
      "stateMutability": "nonpayable",
      "type": "function"
    },
    {
      "inputs": [
        {
          "internalType": "address",
          "name": "_account",
          "type": "address"
        },
        {
          "internalType": "bytes32",
          "name": "_role",
          "type": "bytes32"
        }
      ],
      "name": "revokeRole",
      "outputs": [],
      "stateMutability": "nonpayable",
      "type": "function"
    },
    {
      "inputs": [
        {
          "internalType": "address",
          "name": "_account",
          "type": "address"
        },
        {
          "internalType": "bytes32",
          "name": "_role",
          "type": "bytes32"
        }
      ],
      "name": "hasUserRole",
      "outputs": [
        {
          "internalType": "bool",
          "name": "",
          "type": "bool"
        }
      ],
      "stateMutability": "view",
      "type": "function",
      "constant": true
    },
    {
      "inputs": [
        {
          "internalType": "bytes32",
          "name": "_role",
          "type": "bytes32"
        }
      ],
      "name": "grantSelfRole",
      "outputs": [],
      "stateMutability": "nonpayable",
      "type": "function"
    }
  ],
  "bytecode": "0x608060405234801561001057600080fd5b5060016000803373ffffffffffffffffffffffffffffffffffffffff1673ffffffffffffffffffffffffffffffffffffffff16815260200190815260200160002060007fa49807205ce4d355092ef5a8a18f56e8913cf4a201fbe287825b095693c21775815260200190815260200160002060006101000a81548160ff0219169083151502179055503373ffffffffffffffffffffffffffffffffffffffff167fa49807205ce4d355092ef5a8a18f56e8913cf4a201fbe287825b095693c217757f2ae6a113c0ed5b78a53413ffbb7679881f11145ccfba4fb92e863dfcd5a1d2f360405160405180910390a36109e08061010c6000396000f3fe608060405234801561001057600080fd5b506004361061009e5760003560e01c806375b238fc1161006657806375b238fc14610147578063965288b014610165578063ab2742dc14610183578063da9041111461019f578063f0bd87cc146101cf5761009e565b8063208dd1ff146100a35780632115e7bf146100bf578063276832d7146100dd5780633db36ca41461010d5780634bc02da614610129575b600080fd5b6100bd60048036038101906100b891906107f4565b6101ed565b005b6100c7610359565b6040516100d49190610843565b60405180910390f35b6100f760048036038101906100f291906107f4565b61037d565b6040516101049190610879565b60405180910390f35b61012760048036038101906101229190610894565b6103e4565b005b610131610530565b60405161013e9190610843565b60405180910390f35b61014f610554565b60405161015c9190610843565b60405180910390f35b61016d610578565b60405161017a9190610843565b60405180910390f35b61019d600480360381019061019891906107f4565b61059c565b005b6101b960048036038101906101b491906107f4565b610708565b6040516101c69190610879565b60405180910390f35b6101d7610737565b6040516101e49190610843565b60405180910390f35b6000803373ffffffffffffffffffffffffffffffffffffffff1673ffffffffffffffffffffffffffffffffffffffff16815260200190815260200160002060007fa49807205ce4d355092ef5a8a18f56e8913cf4a201fbe287825b095693c21775815260200190815260200160002060009054906101000a900460ff166102a9576040517f08c379a00000000000000000000000000000000000000000000000000000000081526004016102a09061091e565b60405180910390fd5b60008060008473ffffffffffffffffffffffffffffffffffffffff1673ffffffffffffffffffffffffffffffffffffffff168152602001908152602001600020600083815260200190815260200160002060006101000a81548160ff0219169083151502179055508173ffffffffffffffffffffffffffffffffffffffff16817f155aaafb6329a2098580462df33ec4b7441b19729b9601c5fc17ae1cf99a8a5260405160405180910390a35050565b7f2a5f906c256a5d799494fcd066e1f6c077689de1cdb65052a1624de4bace99bf81565b60008060008473ffffffffffffffffffffffffffffffffffffffff1673ffffffffffffffffffffffffffffffffffffffff168152602001908152602001600020600083815260200190815260200160002060009054906101000a900460ff16905092915050565b6000803373ffffffffffffffffffffffffffffffffffffffff1673ffffffffffffffffffffffffffffffffffffffff168152602001908152602001600020600082815260200190815260200160002060009054906101000a900460ff1615610481576040517f08c379a00000000000000000000000000000000000000000000000000000000081526004016104789061098a565b60405180910390fd5b60016000803373ffffffffffffffffffffffffffffffffffffffff1673ffffffffffffffffffffffffffffffffffffffff168152602001908152602001600020600083815260200190815260200160002060006101000a81548160ff0219169083151502179055503373ffffffffffffffffffffffffffffffffffffffff16817f2ae6a113c0ed5b78a53413ffbb7679881f11145ccfba4fb92e863dfcd5a1d2f360405160405180910390a350565b7f9d56108290ea0bc9c5c59c3ad357dca9d1b29ed7f3ae1443bef2fa2159bdf5e881565b7fa49807205ce4d355092ef5a8a18f56e8913cf4a201fbe287825b095693c2177581565b7feefb95e842a3287179d933b4460be539a1d5af11aa8b325bb45c5c8dc92de4ed81565b6000803373ffffffffffffffffffffffffffffffffffffffff1673ffffffffffffffffffffffffffffffffffffffff16815260200190815260200160002060007fa49807205ce4d355092ef5a8a18f56e8913cf4a201fbe287825b095693c21775815260200190815260200160002060009054906101000a900460ff16610658576040517f08c379a000000000000000000000000000000000000000000000000000000000815260040161064f9061091e565b60405180910390fd5b60016000808473ffffffffffffffffffffffffffffffffffffffff1673ffffffffffffffffffffffffffffffffffffffff168152602001908152602001600020600083815260200190815260200160002060006101000a81548160ff0219169083151502179055508173ffffffffffffffffffffffffffffffffffffffff16817f2ae6a113c0ed5b78a53413ffbb7679881f11145ccfba4fb92e863dfcd5a1d2f360405160405180910390a35050565b60006020528160005260406000206020528060005260406000206000915091509054906101000a900460ff1681565b7ffbd454f36a7e1a388bd6fc3ab10d434aa4578f811acbbcf33afb1c697486313c81565b600080fd5b600073ffffffffffffffffffffffffffffffffffffffff82169050919050565b600061078b82610760565b9050919050565b61079b81610780565b81146107a657600080fd5b50565b6000813590506107b881610792565b92915050565b6000819050919050565b6107d1816107be565b81146107dc57600080fd5b50565b6000813590506107ee816107c8565b92915050565b6000806040838503121561080b5761080a61075b565b5b6000610819858286016107a9565b925050602061082a858286016107df565b9150509250929050565b61083d816107be565b82525050565b60006020820190506108586000830184610834565b92915050565b60008115159050919050565b6108738161085e565b82525050565b600060208201905061088e600083018461086a565b92915050565b6000602082840312156108aa576108a961075b565b5b60006108b8848285016107df565b91505092915050565b600082825260208201905092915050565b7f52657175697265732061646d696e20726f6c6500000000000000000000000000600082015250565b60006109086013836108c1565b9150610913826108d2565b602082019050919050565b60006020820190508181036000830152610937816108fb565b9050919050565b7f416c72656164792068617320726f6c6500000000000000000000000000000000600082015250565b60006109746010836108c1565b915061097f8261093e565b602082019050919050565b600060208201905081810360008301526109a381610967565b905091905056fea264697066735822122070e0189407f0629d2ca301160efd536dd64e66d976bea18d926c11f6b2578fbf64736f6c63430008130033",
  "immutableReferences": {},
  "source": "// SPDX-License-Identifier: MIT\r\npragma solidity 0.8.19;\r\n\r\ncontract AccessControl {\r\n    bytes32 public constant ADMIN_ROLE = keccak256(\"ADMIN_ROLE\");\r\n    bytes32 public constant MANUFACTURER_ROLE = keccak256(\"MANUFACTURER_ROLE\");\r\n    bytes32 public constant DISTRIBUTOR_ROLE = keccak256(\"DISTRIBUTOR_ROLE\");\r\n    bytes32 public constant RETAILER_ROLE = keccak256(\"RETAILER_ROLE\");\r\n    bytes32 public constant CONSUMER_ROLE = keccak256(\"CONSUMER_ROLE\");\r\n    \r\n    mapping(address => mapping(bytes32 => bool)) public roles;\r\n    \r\n    event RoleGranted(bytes32 indexed role, address indexed account);\r\n    event RoleRevoked(bytes32 indexed role, address indexed account);\r\n    \r\n    constructor() {\r\n        // Assign admin role to deployer\r\n        roles[msg.sender][ADMIN_ROLE] = true;\r\n        emit RoleGranted(ADMIN_ROLE, msg.sender);\r\n    }\r\n    \r\n    modifier onlyAdmin() {\r\n        require(roles[msg.sender][ADMIN_ROLE], \"Requires admin role\");\r\n        _;\r\n    }\r\n    \r\n    modifier hasRole(bytes32 _role) {\r\n        require(roles[msg.sender][_role], \"Does not have required role\");\r\n        _;\r\n    }\r\n    \r\n    function grantRole(address _account, bytes32 _role) public onlyAdmin {\r\n        roles[_account][_role] = true;\r\n        emit RoleGranted(_role, _account);\r\n    }\r\n    \r\n    function revokeRole(address _account, bytes32 _role) public onlyAdmin {\r\n        roles[_account][_role] = false;\r\n        emit RoleRevoked(_role, _account);\r\n    }\r\n    \r\n    function hasUserRole(address _account, bytes32 _role) public view returns (bool) {\r\n        return roles[_account][_role];\r\n    }\r\n    \r\n    // For testing - grant self a role\r\n    function grantSelfRole(bytes32 _role) public {\r\n        require(!roles[msg.sender][_role], \"Already has role\");\r\n        roles[msg.sender][_role] = true;\r\n        emit RoleGranted(_role, msg.sender);\r\n    }\r\n}",
  "sourcePath": "D:\\Projects\\BlockchainSCM\\contracts\\contracts\\AccessControl.sol",
  "compiler": {
    "name": "solc",
    "version": "0.8.19+commit.7dd6d404.Emscripten.clang"
  },
  "schemaVersion": "3.4.16",
  "updatedAt": "2025-04-15T12:36:46.762Z",
  "networkType": "ethereum",
  "devdoc": {
    "kind": "dev",
    "methods": {},
    "version": 1
  },
  "userdoc": {
    "kind": "user",
    "methods": {},
    "version": 1
  }
}