{
  "contractName": "AccessControl",
  "abi": [
    {
      "inputs": [],
      "stateMutability": "nonpayable",
      "type": "constructor"
    },
    {
      "anonymous": false,
      "inputs": [
        {
          "indexed": true,
          "internalType": "address",
          "name": "account",
          "type": "address"
        },
        {
          "indexed": true,
          "internalType": "bytes32",
          "name": "role",
          "type": "bytes32"
        }
      ],
      "name": "RoleGranted",
      "type": "event"
    },
    {
      "anonymous": false,
      "inputs": [
        {
          "indexed": true,
          "internalType": "address",
          "name": "account",
          "type": "address"
        },
        {
          "indexed": true,
          "internalType": "bytes32",
          "name": "role",
          "type": "bytes32"
        }
      ],
      "name": "RoleRevoked",
      "type": "event"
    },
    {
      "inputs": [],
      "name": "ADMIN_ROLE",
      "outputs": [
        {
          "internalType": "bytes32",
          "name": "",
          "type": "bytes32"
        }
      ],
      "stateMutability": "view",
      "type": "function",
      "constant": true
    },
    {
      "inputs": [],
      "name": "CONSUMER_ROLE",
      "outputs": [
        {
          "internalType": "bytes32",
          "name": "",
          "type": "bytes32"
        }
      ],
      "stateMutability": "view",
      "type": "function",
      "constant": true
    },
    {
      "inputs": [],
      "name": "DISTRIBUTOR_ROLE",
      "outputs": [
        {
          "internalType": "bytes32",
          "name": "",
          "type": "bytes32"
        }
      ],
      "stateMutability": "view",
      "type": "function",
      "constant": true
    },
    {
      "inputs": [],
      "name": "MANUFACTURER_ROLE",
      "outputs": [
        {
          "internalType": "bytes32",
          "name": "",
          "type": "bytes32"
        }
      ],
      "stateMutability": "view",
      "type": "function",
      "constant": true
    },
    {
      "inputs": [],
      "name": "RETAILER_ROLE",
      "outputs": [
        {
          "internalType": "bytes32",
          "name": "",
          "type": "bytes32"
        }
      ],
      "stateMutability": "view",
      "type": "function",
      "constant": true
    },
    {
      "inputs": [],
      "name": "admin",
      "outputs": [
        {
          "internalType": "address",
          "name": "",
          "type": "address"
        }
      ],
      "stateMutability": "view",
      "type": "function",
      "constant": true
    },
    {
      "inputs": [
        {
          "internalType": "address",
          "name": "account",
          "type": "address"
        },
        {
          "internalType": "bytes32",
          "name": "role",
          "type": "bytes32"
        }
      ],
      "name": "grantRole",
      "outputs": [],
      "stateMutability": "nonpayable",
      "type": "function"
    },
    {
      "inputs": [
        {
          "internalType": "address",
          "name": "account",
          "type": "address"
        },
        {
          "internalType": "bytes32",
          "name": "role",
          "type": "bytes32"
        }
      ],
      "name": "revokeRole",
      "outputs": [],
      "stateMutability": "nonpayable",
      "type": "function"
    },
    {
      "inputs": [
        {
          "internalType": "address",
          "name": "account",
          "type": "address"
        },
        {
          "internalType": "bytes32",
          "name": "role",
          "type": "bytes32"
        }
      ],
      "name": "hasRole",
      "outputs": [
        {
          "internalType": "bool",
          "name": "",
          "type": "bool"
        }
      ],
      "stateMutability": "view",
      "type": "function",
      "constant": true
    },
    {
      "inputs": [
        {
          "internalType": "address",
          "name": "account",
          "type": "address"
        },
        {
          "internalType": "bytes32",
          "name": "role",
          "type": "bytes32"
        }
      ],
      "name": "hasUserRole",
      "outputs": [
        {
          "internalType": "bool",
          "name": "",
          "type": "bool"
        }
      ],
      "stateMutability": "view",
      "type": "function",
      "constant": true
    }
  ],
  "bytecode": "0x608060405234801561001057600080fd5b5033600160006101000a81548173ffffffffffffffffffffffffffffffffffffffff021916908373ffffffffffffffffffffffffffffffffffffffff16021790555060016000803373ffffffffffffffffffffffffffffffffffffffff1673ffffffffffffffffffffffffffffffffffffffff16815260200190815260200160002060007fa49807205ce4d355092ef5a8a18f56e8913cf4a201fbe287825b095693c21775815260200190815260200160002060006101000a81548160ff0219169083151502179055507fa49807205ce4d355092ef5a8a18f56e8913cf4a201fbe287825b095693c217753373ffffffffffffffffffffffffffffffffffffffff167fcf7afa953eac742fc7c2e2985cce7875d0ff3b2e3952b4526a780c7777bbe9af60405160405180910390a36108ab8061014d6000396000f3fe608060405234801561001057600080fd5b506004361061009e5760003560e01c8063965288b011610066578063965288b014610149578063ab2742dc14610167578063ac4ab3fb14610183578063f0bd87cc146101b3578063f851a440146101d15761009e565b8063208dd1ff146100a35780632115e7bf146100bf578063276832d7146100dd5780634bc02da61461010d57806375b238fc1461012b575b600080fd5b6100bd60048036038101906100b89190610708565b6101ef565b005b6100c761035b565b6040516100d49190610757565b60405180910390f35b6100f760048036038101906100f29190610708565b61037f565b604051610104919061078d565b60405180910390f35b6101156103e6565b6040516101229190610757565b60405180910390f35b61013361040a565b6040516101409190610757565b60405180910390f35b61015161042e565b60405161015e9190610757565b60405180910390f35b610181600480360381019061017c9190610708565b610452565b005b61019d60048036038101906101989190610708565b6105be565b6040516101aa919061078d565b60405180910390f35b6101bb610625565b6040516101c89190610757565b60405180910390f35b6101d9610649565b6040516101e691906107b7565b60405180910390f35b6000803373ffffffffffffffffffffffffffffffffffffffff1673ffffffffffffffffffffffffffffffffffffffff16815260200190815260200160002060007fa49807205ce4d355092ef5a8a18f56e8913cf4a201fbe287825b095693c21775815260200190815260200160002060009054906101000a900460ff166102ab576040517f08c379a00000000000000000000000000000000000000000000000000000000081526004016102a290610855565b60405180910390fd5b60008060008473ffffffffffffffffffffffffffffffffffffffff1673ffffffffffffffffffffffffffffffffffffffff168152602001908152602001600020600083815260200190815260200160002060006101000a81548160ff021916908315150217905550808273ffffffffffffffffffffffffffffffffffffffff167fea83a7caef01824e96446a8c4bc8ff4669edd99e129b53e32c077f85d216808160405160405180910390a35050565b7f2a5f906c256a5d799494fcd066e1f6c077689de1cdb65052a1624de4bace99bf81565b60008060008473ffffffffffffffffffffffffffffffffffffffff1673ffffffffffffffffffffffffffffffffffffffff168152602001908152602001600020600083815260200190815260200160002060009054906101000a900460ff16905092915050565b7f9d56108290ea0bc9c5c59c3ad357dca9d1b29ed7f3ae1443bef2fa2159bdf5e881565b7fa49807205ce4d355092ef5a8a18f56e8913cf4a201fbe287825b095693c2177581565b7feefb95e842a3287179d933b4460be539a1d5af11aa8b325bb45c5c8dc92de4ed81565b6000803373ffffffffffffffffffffffffffffffffffffffff1673ffffffffffffffffffffffffffffffffffffffff16815260200190815260200160002060007fa49807205ce4d355092ef5a8a18f56e8913cf4a201fbe287825b095693c21775815260200190815260200160002060009054906101000a900460ff1661050e576040517f08c379a000000000000000000000000000000000000000000000000000000000815260040161050590610855565b60405180910390fd5b60016000808473ffffffffffffffffffffffffffffffffffffffff1673ffffffffffffffffffffffffffffffffffffffff168152602001908152602001600020600083815260200190815260200160002060006101000a81548160ff021916908315150217905550808273ffffffffffffffffffffffffffffffffffffffff167fcf7afa953eac742fc7c2e2985cce7875d0ff3b2e3952b4526a780c7777bbe9af60405160405180910390a35050565b60008060008473ffffffffffffffffffffffffffffffffffffffff1673ffffffffffffffffffffffffffffffffffffffff168152602001908152602001600020600083815260200190815260200160002060009054906101000a900460ff16905092915050565b7ffbd454f36a7e1a388bd6fc3ab10d434aa4578f811acbbcf33afb1c697486313c81565b600160009054906101000a900473ffffffffffffffffffffffffffffffffffffffff1681565b600080fd5b600073ffffffffffffffffffffffffffffffffffffffff82169050919050565b600061069f82610674565b9050919050565b6106af81610694565b81146106ba57600080fd5b50565b6000813590506106cc816106a6565b92915050565b6000819050919050565b6106e5816106d2565b81146106f057600080fd5b50565b600081359050610702816106dc565b92915050565b6000806040838503121561071f5761071e61066f565b5b600061072d858286016106bd565b925050602061073e858286016106f3565b9150509250929050565b610751816106d2565b82525050565b600060208201905061076c6000830184610748565b92915050565b60008115159050919050565b61078781610772565b82525050565b60006020820190506107a2600083018461077e565b92915050565b6107b181610694565b82525050565b60006020820190506107cc60008301846107a8565b92915050565b600082825260208201905092915050565b7f416363657373436f6e74726f6c3a2063616c6c6572206973206e6f742061646d60008201527f696e000000000000000000000000000000000000000000000000000000000000602082015250565b600061083f6022836107d2565b915061084a826107e3565b604082019050919050565b6000602082019050818103600083015261086e81610832565b905091905056fea2646970667358221220eff4db2daa22477c954746d30bdbb490263622eeb886217d967bbddec24e5ad164736f6c63430008130033",
  "immutableReferences": {},
  "source": "// SPDX-License-Identifier: MIT\r\npragma solidity 0.8.19;\r\n\r\ncontract AccessControl {\r\n    bytes32 public constant ADMIN_ROLE = keccak256(\"ADMIN_ROLE\");\r\n    bytes32 public constant MANUFACTURER_ROLE = keccak256(\"MANUFACTURER_ROLE\");\r\n    bytes32 public constant DISTRIBUTOR_ROLE = keccak256(\"DISTRIBUTOR_ROLE\");\r\n    bytes32 public constant RETAILER_ROLE = keccak256(\"RETAILER_ROLE\");\r\n    bytes32 public constant CONSUMER_ROLE = keccak256(\"CONSUMER_ROLE\");\r\n    \r\n    mapping(address => mapping(bytes32 => bool)) private roles;\r\n    \r\n    address public admin;\r\n\r\n    event RoleGranted(address indexed account, bytes32 indexed role);\r\n    event RoleRevoked(address indexed account, bytes32 indexed role);\r\n    \r\n    constructor() {\r\n        admin = msg.sender;\r\n        roles[msg.sender][ADMIN_ROLE] = true;\r\n        emit RoleGranted(msg.sender, ADMIN_ROLE);\r\n    }\r\n    \r\n    modifier onlyAdmin() {\r\n        require(roles[msg.sender][ADMIN_ROLE], \"AccessControl: caller is not admin\");\r\n        _;\r\n    }\r\n    \r\n    modifier onlyRole(bytes32 role) {\r\n        require(roles[msg.sender][role], \"AccessControl: caller doesn't have required role\");\r\n        _;\r\n    }\r\n    \r\n    function grantRole(address account, bytes32 role) external onlyAdmin {\r\n        roles[account][role] = true;\r\n        emit RoleGranted(account, role);\r\n    }\r\n    \r\n    function revokeRole(address account, bytes32 role) external onlyAdmin {\r\n        roles[account][role] = false;\r\n        emit RoleRevoked(account, role);\r\n    }\r\n    \r\n    function hasRole(address account, bytes32 role) external view returns (bool) {\r\n        return roles[account][role];\r\n    }\r\n    \r\n    function hasUserRole(address account, bytes32 role) external view returns (bool) {\r\n        return roles[account][role];\r\n    }\r\n}",
  "sourcePath": "D:\\Projects\\BlockchainSCM\\contracts\\contracts\\AccessControl.sol",
  "compiler": {
    "name": "solc",
    "version": "0.8.19+commit.7dd6d404.Emscripten.clang"
  },
  "schemaVersion": "3.4.16",
  "updatedAt": "2025-04-17T09:54:24.454Z",
  "networkType": "ethereum",
  "devdoc": {
    "kind": "dev",
    "methods": {},
    "version": 1
  },
  "userdoc": {
    "kind": "user",
    "methods": {},
    "version": 1
  }
}