{
  "contractName": "ProductTracking",
  "abi": [
    {
      "anonymous": false,
      "inputs": [
        {
          "indexed": false,
          "internalType": "uint256",
          "name": "productId",
          "type": "uint256"
        },
        {
          "indexed": false,
          "internalType": "address",
          "name": "manufacturer",
          "type": "address"
        }
      ],
      "name": "ProductCreated",
      "type": "event"
    },
    {
      "anonymous": false,
      "inputs": [
        {
          "indexed": false,
          "internalType": "address",
          "name": "from",
          "type": "address"
        },
        {
          "indexed": false,
          "internalType": "address",
          "name": "to",
          "type": "address"
        },
        {
          "indexed": false,
          "internalType": "uint256",
          "name": "productId",
          "type": "uint256"
        }
      ],
      "name": "ProductTransferred",
      "type": "event"
    },
    {
      "anonymous": false,
      "inputs": [
        {
          "indexed": false,
          "internalType": "uint256",
          "name": "productId",
          "type": "uint256"
        },
        {
          "indexed": false,
          "internalType": "bytes32",
          "name": "newDataHash",
          "type": "bytes32"
        }
      ],
      "name": "ProductUpdated",
      "type": "event"
    },
    {
      "inputs": [],
      "name": "productCount",
      "outputs": [
        {
          "internalType": "uint256",
          "name": "",
          "type": "uint256"
        }
      ],
      "stateMutability": "view",
      "type": "function",
      "constant": true
    },
    {
      "inputs": [
        {
          "internalType": "uint256",
          "name": "",
          "type": "uint256"
        }
      ],
      "name": "products",
      "outputs": [
        {
          "internalType": "uint256",
          "name": "id",
          "type": "uint256"
        },
        {
          "internalType": "string",
          "name": "name",
          "type": "string"
        },
        {
          "internalType": "string",
          "name": "manufacturer",
          "type": "string"
        },
        {
          "internalType": "address",
          "name": "owner",
          "type": "address"
        },
        {
          "internalType": "uint256",
          "name": "createTime",
          "type": "uint256"
        },
        {
          "internalType": "uint256",
          "name": "updateTime",
          "type": "uint256"
        },
        {
          "internalType": "bytes32",
          "name": "dataHash",
          "type": "bytes32"
        }
      ],
      "stateMutability": "view",
      "type": "function",
      "constant": true
    },
    {
      "inputs": [
        {
          "internalType": "string",
          "name": "_name",
          "type": "string"
        },
        {
          "internalType": "string",
          "name": "_manufacturer",
          "type": "string"
        },
        {
          "internalType": "bytes32",
          "name": "_dataHash",
          "type": "bytes32"
        }
      ],
      "name": "createProduct",
      "outputs": [
        {
          "internalType": "uint256",
          "name": "",
          "type": "uint256"
        }
      ],
      "stateMutability": "nonpayable",
      "type": "function"
    },
    {
      "inputs": [
        {
          "internalType": "address",
          "name": "_to",
          "type": "address"
        },
        {
          "internalType": "uint256",
          "name": "_productId",
          "type": "uint256"
        }
      ],
      "name": "transferProduct",
      "outputs": [],
      "stateMutability": "nonpayable",
      "type": "function"
    },
    {
      "inputs": [
        {
          "internalType": "uint256",
          "name": "_productId",
          "type": "uint256"
        },
        {
          "internalType": "bytes32",
          "name": "_newDataHash",
          "type": "bytes32"
        }
      ],
      "name": "updateProductData",
      "outputs": [],
      "stateMutability": "nonpayable",
      "type": "function"
    },
    {
      "inputs": [
        {
          "internalType": "uint256",
          "name": "_productId",
          "type": "uint256"
        }
      ],
      "name": "getProduct",
      "outputs": [
        {
          "internalType": "uint256",
          "name": "id",
          "type": "uint256"
        },
        {
          "internalType": "string",
          "name": "name",
          "type": "string"
        },
        {
          "internalType": "string",
          "name": "manufacturer",
          "type": "string"
        },
        {
          "internalType": "address",
          "name": "owner",
          "type": "address"
        },
        {
          "internalType": "uint256",
          "name": "createTime",
          "type": "uint256"
        },
        {
          "internalType": "uint256",
          "name": "updateTime",
          "type": "uint256"
        },
        {
          "internalType": "bytes32",
          "name": "dataHash",
          "type": "bytes32"
        }
      ],
      "stateMutability": "view",
      "type": "function",
      "constant": true
    }
  ],
  "bytecode": "0x608060405234801561001057600080fd5b50611147806100206000396000f3fe608060405234801561001057600080fd5b50600436106100625760003560e01c8063025a42ae146100675780637acc0b2014610083578063b9db15b4146100b9578063d9b8dba2146100ef578063e0f6ef871461011f578063f7c135391461013d575b600080fd5b610081600480360381019061007c91906108cf565b610159565b005b61009d6004803603810190610098919061090f565b6102a9565b6040516100b09796959493929190610a03565b60405180910390f35b6100d360048036038101906100ce919061090f565b61041b565b6040516100e69796959493929190610a03565b60405180910390f35b61010960048036038101906101049190610be1565b6105af565b6040516101169190610c6c565b60405180910390f35b61012761070d565b6040516101349190610c6c565b60405180910390f35b61015760048036038101906101529190610c87565b610713565b005b3373ffffffffffffffffffffffffffffffffffffffff1660008083815260200190815260200160002060030160009054906101000a900473ffffffffffffffffffffffffffffffffffffffff1673ffffffffffffffffffffffffffffffffffffffff16146101fc576040517f08c379a00000000000000000000000000000000000000000000000000000000081526004016101f390610d13565b60405180910390fd5b8160008083815260200190815260200160002060030160006101000a81548173ffffffffffffffffffffffffffffffffffffffff021916908373ffffffffffffffffffffffffffffffffffffffff16021790555042600080838152602001908152602001600020600501819055507fd4c698494e479f322b00d87495b6b88db019fd2b663be77331316299f495285d33838360405161029d93929190610d33565b60405180910390a15050565b60006020528060005260406000206000915090508060000154908060010180546102d290610d99565b80601f01602080910402602001604051908101604052809291908181526020018280546102fe90610d99565b801561034b5780601f106103205761010080835404028352916020019161034b565b820191906000526020600020905b81548152906001019060200180831161032e57829003601f168201915b50505050509080600201805461036090610d99565b80601f016020809104026020016040519081016040528092919081815260200182805461038c90610d99565b80156103d95780601f106103ae576101008083540402835291602001916103d9565b820191906000526020600020905b8154815290600101906020018083116103bc57829003601f168201915b5050505050908060030160009054906101000a900473ffffffffffffffffffffffffffffffffffffffff16908060040154908060050154908060060154905087565b600060608060008060008060008060008a81526020019081526020016000209050806000015481600101826002018360030160009054906101000a900473ffffffffffffffffffffffffffffffffffffffff1684600401548560050154866006015485805461048990610d99565b80601f01602080910402602001604051908101604052809291908181526020018280546104b590610d99565b80156105025780601f106104d757610100808354040283529160200191610502565b820191906000526020600020905b8154815290600101906020018083116104e557829003601f168201915b5050505050955084805461051590610d99565b80601f016020809104026020016040519081016040528092919081815260200182805461054190610d99565b801561058e5780601f106105635761010080835404028352916020019161058e565b820191906000526020600020905b81548152906001019060200180831161057157829003601f168201915b50505050509450975097509750975097509750975050919395979092949650565b6000600160008154809291906105c490610df9565b91905055506040518060e0016040528060015481526020018581526020018481526020013373ffffffffffffffffffffffffffffffffffffffff1681526020014281526020014281526020018381525060008060015481526020019081526020016000206000820151816000015560208201518160010190816106479190610fed565b50604082015181600201908161065d9190610fed565b5060608201518160030160006101000a81548173ffffffffffffffffffffffffffffffffffffffff021916908373ffffffffffffffffffffffffffffffffffffffff1602179055506080820151816004015560a0820151816005015560c082015181600601559050507fe8bb4e90e950f7b76a8c4e472b3b5e01d41c478f9eeaea36b4ba991f51133f91600154336040516106f99291906110bf565b60405180910390a160015490509392505050565b60015481565b3373ffffffffffffffffffffffffffffffffffffffff1660008084815260200190815260200160002060030160009054906101000a900473ffffffffffffffffffffffffffffffffffffffff1673ffffffffffffffffffffffffffffffffffffffff16146107b6576040517f08c379a00000000000000000000000000000000000000000000000000000000081526004016107ad90610d13565b60405180910390fd5b806000808481526020019081526020016000206006018190555042600080848152602001908152602001600020600501819055507f7b5841d68542cdd182a97da7bdf9597484b4077d66be2c37d38693d3316b5d6a828260405161081b9291906110e8565b60405180910390a15050565b6000604051905090565b600080fd5b600080fd5b600073ffffffffffffffffffffffffffffffffffffffff82169050919050565b60006108668261083b565b9050919050565b6108768161085b565b811461088157600080fd5b50565b6000813590506108938161086d565b92915050565b6000819050919050565b6108ac81610899565b81146108b757600080fd5b50565b6000813590506108c9816108a3565b92915050565b600080604083850312156108e6576108e5610831565b5b60006108f485828601610884565b9250506020610905858286016108ba565b9150509250929050565b60006020828403121561092557610924610831565b5b6000610933848285016108ba565b91505092915050565b61094581610899565b82525050565b600081519050919050565b600082825260208201905092915050565b60005b8381101561098557808201518184015260208101905061096a565b60008484015250505050565b6000601f19601f8301169050919050565b60006109ad8261094b565b6109b78185610956565b93506109c7818560208601610967565b6109d081610991565b840191505092915050565b6109e48161085b565b82525050565b6000819050919050565b6109fd816109ea565b82525050565b600060e082019050610a18600083018a61093c565b8181036020830152610a2a81896109a2565b90508181036040830152610a3e81886109a2565b9050610a4d60608301876109db565b610a5a608083018661093c565b610a6760a083018561093c565b610a7460c08301846109f4565b98975050505050505050565b600080fd5b600080fd5b7f4e487b7100000000000000000000000000000000000000000000000000000000600052604160045260246000fd5b610ac282610991565b810181811067ffffffffffffffff82111715610ae157610ae0610a8a565b5b80604052505050565b6000610af4610827565b9050610b008282610ab9565b919050565b600067ffffffffffffffff821115610b2057610b1f610a8a565b5b610b2982610991565b9050602081019050919050565b82818337600083830152505050565b6000610b58610b5384610b05565b610aea565b905082815260208101848484011115610b7457610b73610a85565b5b610b7f848285610b36565b509392505050565b600082601f830112610b9c57610b9b610a80565b5b8135610bac848260208601610b45565b91505092915050565b610bbe816109ea565b8114610bc957600080fd5b50565b600081359050610bdb81610bb5565b92915050565b600080600060608486031215610bfa57610bf9610831565b5b600084013567ffffffffffffffff811115610c1857610c17610836565b5b610c2486828701610b87565b935050602084013567ffffffffffffffff811115610c4557610c44610836565b5b610c5186828701610b87565b9250506040610c6286828701610bcc565b9150509250925092565b6000602082019050610c81600083018461093c565b92915050565b60008060408385031215610c9e57610c9d610831565b5b6000610cac858286016108ba565b9250506020610cbd85828601610bcc565b9150509250929050565b7f4e6f74207468652070726f64756374206f776e65720000000000000000000000600082015250565b6000610cfd601583610956565b9150610d0882610cc7565b602082019050919050565b60006020820190508181036000830152610d2c81610cf0565b9050919050565b6000606082019050610d4860008301866109db565b610d5560208301856109db565b610d62604083018461093c565b949350505050565b7f4e487b7100000000000000000000000000000000000000000000000000000000600052602260045260246000fd5b60006002820490506001821680610db157607f821691505b602082108103610dc457610dc3610d6a565b5b50919050565b7f4e487b7100000000000000000000000000000000000000000000000000000000600052601160045260246000fd5b6000610e0482610899565b91507fffffffffffffffffffffffffffffffffffffffffffffffffffffffffffffffff8203610e3657610e35610dca565b5b600182019050919050565b60008190508160005260206000209050919050565b60006020601f8301049050919050565b600082821b905092915050565b600060088302610ea37fffffffffffffffffffffffffffffffffffffffffffffffffffffffffffffffff82610e66565b610ead8683610e66565b95508019841693508086168417925050509392505050565b6000819050919050565b6000610eea610ee5610ee084610899565b610ec5565b610899565b9050919050565b6000819050919050565b610f0483610ecf565b610f18610f1082610ef1565b848454610e73565b825550505050565b600090565b610f2d610f20565b610f38818484610efb565b505050565b5b81811015610f5c57610f51600082610f25565b600181019050610f3e565b5050565b601f821115610fa157610f7281610e41565b610f7b84610e56565b81016020851015610f8a578190505b610f9e610f9685610e56565b830182610f3d565b50505b505050565b600082821c905092915050565b6000610fc460001984600802610fa6565b1980831691505092915050565b6000610fdd8383610fb3565b9150826002028217905092915050565b610ff68261094b565b67ffffffffffffffff81111561100f5761100e610a8a565b5b6110198254610d99565b611024828285610f60565b600060209050601f8311600181146110575760008415611045578287015190505b61104f8582610fd1565b8655506110b7565b601f19841661106586610e41565b60005b8281101561108d57848901518255600182019150602085019450602081019050611068565b868310156110aa57848901516110a6601f891682610fb3565b8355505b6001600288020188555050505b505050505050565b60006040820190506110d4600083018561093c565b6110e160208301846109db565b9392505050565b60006040820190506110fd600083018561093c565b61110a60208301846109f4565b939250505056fea2646970667358221220742641e9bed0ecf4044fd7682b2e1415cc5faa1e47967cf3b759fbff06c6cd3d64736f6c63430008130033",
  "immutableReferences": {},
  "source": "// SPDX-License-Identifier: MIT\r\npragma solidity 0.8.19;\r\n\r\ncontract ProductTracking {\r\n    struct Product {\r\n        uint256 id;\r\n        string name;\r\n        string manufacturer;\r\n        address owner;\r\n        uint256 createTime;\r\n        uint256 updateTime;\r\n        bytes32 dataHash; // Hash of off-chain data\r\n    }\r\n    \r\n    mapping(uint256 => Product) public products;\r\n    uint256 public productCount;\r\n    \r\n    // Events\r\n    event ProductCreated(uint256 productId, address manufacturer);\r\n    event ProductTransferred(address from, address to, uint256 productId);\r\n    event ProductUpdated(uint256 productId, bytes32 newDataHash);\r\n    \r\n    function createProduct(\r\n        string memory _name, \r\n        string memory _manufacturer, \r\n        bytes32 _dataHash\r\n    ) public returns (uint256) {\r\n        productCount++;\r\n        \r\n        products[productCount] = Product({\r\n            id: productCount,\r\n            name: _name,\r\n            manufacturer: _manufacturer,\r\n            owner: msg.sender,\r\n            createTime: block.timestamp,\r\n            updateTime: block.timestamp,\r\n            dataHash: _dataHash\r\n        });\r\n        \r\n        emit ProductCreated(productCount, msg.sender);\r\n        return productCount;\r\n    }\r\n    \r\n    function transferProduct(address _to, uint256 _productId) public {\r\n        require(products[_productId].owner == msg.sender, \"Not the product owner\");\r\n        \r\n        products[_productId].owner = _to;\r\n        products[_productId].updateTime = block.timestamp;\r\n        \r\n        emit ProductTransferred(msg.sender, _to, _productId);\r\n    }\r\n    \r\n    function updateProductData(uint256 _productId, bytes32 _newDataHash) public {\r\n        require(products[_productId].owner == msg.sender, \"Not the product owner\");\r\n        \r\n        products[_productId].dataHash = _newDataHash;\r\n        products[_productId].updateTime = block.timestamp;\r\n        \r\n        emit ProductUpdated(_productId, _newDataHash);\r\n    }\r\n    \r\n    function getProduct(uint256 _productId) public view returns (\r\n        uint256 id,\r\n        string memory name,\r\n        string memory manufacturer,\r\n        address owner,\r\n        uint256 createTime,\r\n        uint256 updateTime,\r\n        bytes32 dataHash\r\n    ) {\r\n        Product storage product = products[_productId];\r\n        return (\r\n            product.id,\r\n            product.name,\r\n            product.manufacturer,\r\n            product.owner,\r\n            product.createTime,\r\n            product.updateTime,\r\n            product.dataHash\r\n        );\r\n    }\r\n}",
  "sourcePath": "D:\\Projects\\BlockchainSCM\\contracts\\contracts\\ProductTracking.sol",
  "compiler": {
    "name": "solc",
    "version": "0.8.19+commit.7dd6d404.Emscripten.clang"
  },
  "schemaVersion": "3.4.16",
  "updatedAt": "2025-04-13T18:30:52.983Z",
  "networkType": "ethereum",
  "devdoc": {
    "kind": "dev",
    "methods": {},
    "version": 1
  },
  "userdoc": {
    "kind": "user",
    "methods": {},
    "version": 1
  }
}