{
  "contractName": "SupplyChainAgreement",
  "abi": [
    {
      "anonymous": false,
      "inputs": [
        {
          "indexed": false,
          "internalType": "uint256",
          "name": "shipmentId",
          "type": "uint256"
        },
        {
          "indexed": false,
          "internalType": "uint256",
          "name": "amount",
          "type": "uint256"
        }
      ],
      "name": "PaymentReleased",
      "type": "event"
    },
    {
      "anonymous": false,
      "inputs": [
        {
          "indexed": false,
          "internalType": "uint256",
          "name": "shipmentId",
          "type": "uint256"
        },
        {
          "indexed": false,
          "internalType": "uint256",
          "name": "timestamp",
          "type": "uint256"
        }
      ],
      "name": "ShipmentCompleted",
      "type": "event"
    },
    {
      "anonymous": false,
      "inputs": [
        {
          "indexed": false,
          "internalType": "uint256",
          "name": "shipmentId",
          "type": "uint256"
        },
        {
          "indexed": false,
          "internalType": "address",
          "name": "sender",
          "type": "address"
        },
        {
          "indexed": false,
          "internalType": "address",
          "name": "receiver",
          "type": "address"
        }
      ],
      "name": "ShipmentCreated",
      "type": "event"
    },
    {
      "anonymous": false,
      "inputs": [
        {
          "indexed": false,
          "internalType": "uint256",
          "name": "shipmentId",
          "type": "uint256"
        },
        {
          "indexed": false,
          "internalType": "uint256",
          "name": "timestamp",
          "type": "uint256"
        }
      ],
      "name": "ShipmentDelivered",
      "type": "event"
    },
    {
      "anonymous": false,
      "inputs": [
        {
          "indexed": false,
          "internalType": "uint256",
          "name": "shipmentId",
          "type": "uint256"
        },
        {
          "indexed": false,
          "internalType": "uint256",
          "name": "timestamp",
          "type": "uint256"
        }
      ],
      "name": "ShipmentInTransit",
      "type": "event"
    },
    {
      "inputs": [],
      "name": "shipmentCount",
      "outputs": [
        {
          "internalType": "uint256",
          "name": "",
          "type": "uint256"
        }
      ],
      "stateMutability": "view",
      "type": "function",
      "constant": true
    },
    {
      "inputs": [
        {
          "internalType": "uint256",
          "name": "",
          "type": "uint256"
        }
      ],
      "name": "shipments",
      "outputs": [
        {
          "internalType": "address",
          "name": "sender",
          "type": "address"
        },
        {
          "internalType": "address",
          "name": "receiver",
          "type": "address"
        },
        {
          "internalType": "uint256",
          "name": "productId",
          "type": "uint256"
        },
        {
          "internalType": "uint256",
          "name": "value",
          "type": "uint256"
        },
        {
          "internalType": "uint256",
          "name": "deliveryDeadline",
          "type": "uint256"
        },
        {
          "internalType": "enum SupplyChainAgreement.Status",
          "name": "status",
          "type": "uint8"
        },
        {
          "internalType": "bool",
          "name": "isPaid",
          "type": "bool"
        }
      ],
      "stateMutability": "view",
      "type": "function",
      "constant": true
    },
    {
      "inputs": [
        {
          "internalType": "address",
          "name": "_receiver",
          "type": "address"
        },
        {
          "internalType": "uint256",
          "name": "_productId",
          "type": "uint256"
        },
        {
          "internalType": "uint256",
          "name": "_deliveryDeadline",
          "type": "uint256"
        }
      ],
      "name": "createShipment",
      "outputs": [
        {
          "internalType": "uint256",
          "name": "",
          "type": "uint256"
        }
      ],
      "stateMutability": "payable",
      "type": "function",
      "payable": true
    },
    {
      "inputs": [
        {
          "internalType": "uint256",
          "name": "_shipmentId",
          "type": "uint256"
        }
      ],
      "name": "startShipment",
      "outputs": [],
      "stateMutability": "nonpayable",
      "type": "function"
    },
    {
      "inputs": [
        {
          "internalType": "uint256",
          "name": "_shipmentId",
          "type": "uint256"
        }
      ],
      "name": "confirmDelivery",
      "outputs": [],
      "stateMutability": "nonpayable",
      "type": "function"
    },
    {
      "inputs": [
        {
          "internalType": "uint256",
          "name": "_shipmentId",
          "type": "uint256"
        }
      ],
      "name": "completeTransaction",
      "outputs": [],
      "stateMutability": "nonpayable",
      "type": "function"
    },
    {
      "inputs": [
        {
          "internalType": "uint256",
          "name": "_shipmentId",
          "type": "uint256"
        }
      ],
      "name": "refundLateShipment",
      "outputs": [],
      "stateMutability": "nonpayable",
      "type": "function"
    },
    {
      "inputs": [
        {
          "internalType": "uint256",
          "name": "_shipmentId",
          "type": "uint256"
        }
      ],
      "name": "getShipment",
      "outputs": [
        {
          "internalType": "address",
          "name": "sender",
          "type": "address"
        },
        {
          "internalType": "address",
          "name": "receiver",
          "type": "address"
        },
        {
          "internalType": "uint256",
          "name": "productId",
          "type": "uint256"
        },
        {
          "internalType": "uint256",
          "name": "value",
          "type": "uint256"
        },
        {
          "internalType": "uint256",
          "name": "deliveryDeadline",
          "type": "uint256"
        },
        {
          "internalType": "enum SupplyChainAgreement.Status",
          "name": "status",
          "type": "uint8"
        },
        {
          "internalType": "bool",
          "name": "isPaid",
          "type": "bool"
        }
      ],
      "stateMutability": "view",
      "type": "function",
      "constant": true
    }
  ],
  "bytecode": "0x608060405234801561001057600080fd5b506113da806100206000396000f3fe60806040526004361061007b5760003560e01c8063aace20b71161004e578063aace20b71461015f578063e2e19ac51461018a578063f5e83e17146101b3578063fd84cb97146101dc5761007b565b8063092b37401461008057806309abeffa146100c35780632ac08a93146100ec57806347cf953a1461012f575b600080fd5b34801561008c57600080fd5b506100a760048036038101906100a29190610d44565b610205565b6040516100ba9796959493929190610e53565b60405180910390f35b3480156100cf57600080fd5b506100ea60048036038101906100e59190610d44565b6102bc565b005b3480156100f857600080fd5b50610113600480360381019061010e9190610d44565b610446565b6040516101269796959493929190610e53565b60405180910390f35b61014960048036038101906101449190610eee565b6104e2565b6040516101569190610f41565b60405180910390f35b34801561016b57600080fd5b506101746106cd565b6040516101819190610f41565b60405180910390f35b34801561019657600080fd5b506101b160048036038101906101ac9190610d44565b6106d3565b005b3480156101bf57600080fd5b506101da60048036038101906101d59190610d44565b61096c565b005b3480156101e857600080fd5b5061020360048036038101906101fe9190610d44565b610b7f565b005b6000806000806000806000806000808a815260200190815260200160002090508060000160009054906101000a900473ffffffffffffffffffffffffffffffffffffffff168160010160009054906101000a900473ffffffffffffffffffffffffffffffffffffffff168260020154836003015484600401548560050160009054906101000a900460ff168660050160019054906101000a900460ff16975097509750975097509750975050919395979092949650565b600080600083815260200190815260200160002090508060000160009054906101000a900473ffffffffffffffffffffffffffffffffffffffff1673ffffffffffffffffffffffffffffffffffffffff163373ffffffffffffffffffffffffffffffffffffffff1614610364576040517f08c379a000000000000000000000000000000000000000000000000000000000815260040161035b90610fb9565b60405180910390fd5b6000600381111561037857610377610dc1565b5b8160050160009054906101000a900460ff16600381111561039c5761039b610dc1565b5b146103dc576040517f08c379a00000000000000000000000000000000000000000000000000000000081526004016103d390611025565b60405180910390fd5b60018160050160006101000a81548160ff0219169083600381111561040457610403610dc1565b5b02179055507f20cc89d3bded694690586396cf9d8cb38e24b9c40302e334e7ac9f0791e5a80e824260405161043a929190611045565b60405180910390a15050565b60006020528060005260406000206000915090508060000160009054906101000a900473ffffffffffffffffffffffffffffffffffffffff16908060010160009054906101000a900473ffffffffffffffffffffffffffffffffffffffff16908060020154908060030154908060040154908060050160009054906101000a900460ff16908060050160019054906101000a900460ff16905087565b6000600160008154809291906104f79061109d565b91905055506040518060e001604052803373ffffffffffffffffffffffffffffffffffffffff1681526020018573ffffffffffffffffffffffffffffffffffffffff1681526020018481526020013481526020018381526020016000600381111561056557610564610dc1565b5b815260200160001515815250600080600154815260200190815260200160002060008201518160000160006101000a81548173ffffffffffffffffffffffffffffffffffffffff021916908373ffffffffffffffffffffffffffffffffffffffff16021790555060208201518160010160006101000a81548173ffffffffffffffffffffffffffffffffffffffff021916908373ffffffffffffffffffffffffffffffffffffffff16021790555060408201518160020155606082015181600301556080820151816004015560a08201518160050160006101000a81548160ff0219169083600381111561065c5761065b610dc1565b5b021790555060c08201518160050160016101000a81548160ff0219169083151502179055509050507ffe0fd664b79935c18377297309c92f6abe60ccaa6d43bd30327c508c7fda080e60015433866040516106b9939291906110e5565b60405180910390a160015490509392505050565b60015481565b600080600083815260200190815260200160002090508060010160009054906101000a900473ffffffffffffffffffffffffffffffffffffffff1673ffffffffffffffffffffffffffffffffffffffff163373ffffffffffffffffffffffffffffffffffffffff161461077b576040517f08c379a000000000000000000000000000000000000000000000000000000000815260040161077290611168565b60405180910390fd5b6001600381111561078f5761078e610dc1565b5b8160050160009054906101000a900460ff1660038111156107b3576107b2610dc1565b5b146107f3576040517f08c379a00000000000000000000000000000000000000000000000000000000081526004016107ea906111d4565b60405180910390fd5b80600401544211610839576040517f08c379a000000000000000000000000000000000000000000000000000000000815260040161083090611240565b60405180910390fd5b60038160050160006101000a81548160ff0219169083600381111561086157610860610dc1565b5b021790555060018160050160016101000a81548160ff0219169083151502179055508060010160009054906101000a900473ffffffffffffffffffffffffffffffffffffffff1673ffffffffffffffffffffffffffffffffffffffff166108fc82600301549081150290604051600060405180830381858888f193505050501580156108f1573d6000803e3d6000fd5b507fc8ef479acdbffd729d96117b951d1c3ee85d98ef42699aec806bc4f0b522461d828260030154604051610927929190611045565b60405180910390a17f378922311b5fa5c998c1b18237a2440d503d467df4f8e2859af465526967e8e78242604051610960929190611045565b60405180910390a15050565b600080600083815260200190815260200160002090506002600381111561099657610995610dc1565b5b8160050160009054906101000a900460ff1660038111156109ba576109b9610dc1565b5b146109fa576040517f08c379a00000000000000000000000000000000000000000000000000000000081526004016109f1906112ac565b60405180910390fd5b8060050160019054906101000a900460ff1615610a4c576040517f08c379a0000000000000000000000000000000000000000000000000000000008152600401610a4390611318565b60405180910390fd5b60038160050160006101000a81548160ff02191690836003811115610a7457610a73610dc1565b5b021790555060018160050160016101000a81548160ff0219169083151502179055508060000160009054906101000a900473ffffffffffffffffffffffffffffffffffffffff1673ffffffffffffffffffffffffffffffffffffffff166108fc82600301549081150290604051600060405180830381858888f19350505050158015610b04573d6000803e3d6000fd5b507fc8ef479acdbffd729d96117b951d1c3ee85d98ef42699aec806bc4f0b522461d828260030154604051610b3a929190611045565b60405180910390a17f378922311b5fa5c998c1b18237a2440d503d467df4f8e2859af465526967e8e78242604051610b73929190611045565b60405180910390a15050565b600080600083815260200190815260200160002090508060010160009054906101000a900473ffffffffffffffffffffffffffffffffffffffff1673ffffffffffffffffffffffffffffffffffffffff163373ffffffffffffffffffffffffffffffffffffffff1614610c27576040517f08c379a0000000000000000000000000000000000000000000000000000000008152600401610c1e90611384565b60405180910390fd5b60016003811115610c3b57610c3a610dc1565b5b8160050160009054906101000a900460ff166003811115610c5f57610c5e610dc1565b5b14610c9f576040517f08c379a0000000000000000000000000000000000000000000000000000000008152600401610c96906111d4565b60405180910390fd5b60028160050160006101000a81548160ff02191690836003811115610cc757610cc6610dc1565b5b02179055507fdd3eafcd99a3f4d8b6ce7d52cf71f07a3e59d9d6c0b066eaa314812456b6b8558242604051610cfd929190611045565b60405180910390a15050565b600080fd5b6000819050919050565b610d2181610d0e565b8114610d2c57600080fd5b50565b600081359050610d3e81610d18565b92915050565b600060208284031215610d5a57610d59610d09565b5b6000610d6884828501610d2f565b91505092915050565b600073ffffffffffffffffffffffffffffffffffffffff82169050919050565b6000610d9c82610d71565b9050919050565b610dac81610d91565b82525050565b610dbb81610d0e565b82525050565b7f4e487b7100000000000000000000000000000000000000000000000000000000600052602160045260246000fd5b60048110610e0157610e00610dc1565b5b50565b6000819050610e1282610df0565b919050565b6000610e2282610e04565b9050919050565b610e3281610e17565b82525050565b60008115159050919050565b610e4d81610e38565b82525050565b600060e082019050610e68600083018a610da3565b610e756020830189610da3565b610e826040830188610db2565b610e8f6060830187610db2565b610e9c6080830186610db2565b610ea960a0830185610e29565b610eb660c0830184610e44565b98975050505050505050565b610ecb81610d91565b8114610ed657600080fd5b50565b600081359050610ee881610ec2565b92915050565b600080600060608486031215610f0757610f06610d09565b5b6000610f1586828701610ed9565b9350506020610f2686828701610d2f565b9250506040610f3786828701610d2f565b9150509250925092565b6000602082019050610f566000830184610db2565b92915050565b600082825260208201905092915050565b7f4f6e6c792073656e6465722063616e20737461727420736869706d656e740000600082015250565b6000610fa3601e83610f5c565b9150610fae82610f6d565b602082019050919050565b60006020820190508181036000830152610fd281610f96565b9050919050565b7f536869706d656e7420616c726561647920737461727465640000000000000000600082015250565b600061100f601883610f5c565b915061101a82610fd9565b602082019050919050565b6000602082019050818103600083015261103e81611002565b9050919050565b600060408201905061105a6000830185610db2565b6110676020830184610db2565b9392505050565b7f4e487b7100000000000000000000000000000000000000000000000000000000600052601160045260246000fd5b60006110a882610d0e565b91507fffffffffffffffffffffffffffffffffffffffffffffffffffffffffffffffff82036110da576110d961106e565b5b600182019050919050565b60006060820190506110fa6000830186610db2565b6111076020830185610da3565b6111146040830184610da3565b949350505050565b7f4f6e6c792072656365697665722063616e20726566756e640000000000000000600082015250565b6000611152601883610f5c565b915061115d8261111c565b602082019050919050565b6000602082019050818103600083015261118181611145565b9050919050565b7f536869706d656e74206e6f7420696e207472616e736974000000000000000000600082015250565b60006111be601783610f5c565b91506111c982611188565b602082019050919050565b600060208201905081810360008301526111ed816111b1565b9050919050565b7f446561646c696e65206e6f742070617373656400000000000000000000000000600082015250565b600061122a601383610f5c565b9150611235826111f4565b602082019050919050565b600060208201905081810360008301526112598161121d565b9050919050565b7f44656c6976657279206e6f7420636f6e6669726d656400000000000000000000600082015250565b6000611296601683610f5c565b91506112a182611260565b602082019050919050565b600060208201905081810360008301526112c581611289565b9050919050565b7f5061796d656e7420616c72656164792072656c65617365640000000000000000600082015250565b6000611302601883610f5c565b915061130d826112cc565b602082019050919050565b60006020820190508181036000830152611331816112f5565b9050919050565b7f4f6e6c792072656365697665722063616e20636f6e6669726d00000000000000600082015250565b600061136e601983610f5c565b915061137982611338565b602082019050919050565b6000602082019050818103600083015261139d81611361565b905091905056fea264697066735822122003652f6d057ca7e504c40ff8ba117909fc350f17ee33f14c4d8817ff6c97faaf64736f6c63430008130033",
  "immutableReferences": {},
  "source": "// SPDX-License-Identifier: MIT\r\npragma solidity 0.8.19;\r\n\r\ncontract SupplyChainAgreement {\r\n    enum Status { Created, InTransit, Delivered, Completed }\r\n    \r\n    struct Shipment {\r\n        address sender;\r\n        address receiver;\r\n        uint256 productId;\r\n        uint256 value;\r\n        uint256 deliveryDeadline;\r\n        Status status;\r\n        bool isPaid;\r\n    }\r\n    \r\n    mapping(uint256 => Shipment) public shipments;\r\n    uint256 public shipmentCount;\r\n    \r\n    event ShipmentCreated(uint256 shipmentId, address sender, address receiver);\r\n    event ShipmentInTransit(uint256 shipmentId, uint256 timestamp);\r\n    event ShipmentDelivered(uint256 shipmentId, uint256 timestamp);\r\n    event ShipmentCompleted(uint256 shipmentId, uint256 timestamp);\r\n    event PaymentReleased(uint256 shipmentId, uint256 amount);\r\n    \r\n    function createShipment(\r\n        address _receiver,\r\n        uint256 _productId,\r\n        uint256 _deliveryDeadline\r\n    ) public payable returns (uint256) {\r\n        shipmentCount++;\r\n        \r\n        shipments[shipmentCount] = Shipment({\r\n            sender: msg.sender,\r\n            receiver: _receiver,\r\n            productId: _productId,\r\n            value: msg.value,\r\n            deliveryDeadline: _deliveryDeadline,\r\n            status: Status.Created,\r\n            isPaid: false\r\n        });\r\n        \r\n        emit ShipmentCreated(shipmentCount, msg.sender, _receiver);\r\n        return shipmentCount;\r\n    }\r\n    \r\n    function startShipment(uint256 _shipmentId) public {\r\n        Shipment storage shipment = shipments[_shipmentId];\r\n        require(msg.sender == shipment.sender, \"Only sender can start shipment\");\r\n        require(shipment.status == Status.Created, \"Shipment already started\");\r\n        \r\n        shipment.status = Status.InTransit;\r\n        emit ShipmentInTransit(_shipmentId, block.timestamp);\r\n    }\r\n    \r\n    function confirmDelivery(uint256 _shipmentId) public {\r\n        Shipment storage shipment = shipments[_shipmentId];\r\n        require(msg.sender == shipment.receiver, \"Only receiver can confirm\");\r\n        require(shipment.status == Status.InTransit, \"Shipment not in transit\");\r\n        \r\n        shipment.status = Status.Delivered;\r\n        emit ShipmentDelivered(_shipmentId, block.timestamp);\r\n    }\r\n    \r\n    function completeTransaction(uint256 _shipmentId) public {\r\n        Shipment storage shipment = shipments[_shipmentId];\r\n        require(shipment.status == Status.Delivered, \"Delivery not confirmed\");\r\n        require(!shipment.isPaid, \"Payment already released\");\r\n        \r\n        shipment.status = Status.Completed;\r\n        shipment.isPaid = true;\r\n        \r\n        payable(shipment.sender).transfer(shipment.value);\r\n        \r\n        emit PaymentReleased(_shipmentId, shipment.value);\r\n        emit ShipmentCompleted(_shipmentId, block.timestamp);\r\n    }\r\n    \r\n    function refundLateShipment(uint256 _shipmentId) public {\r\n        Shipment storage shipment = shipments[_shipmentId];\r\n        require(msg.sender == shipment.receiver, \"Only receiver can refund\");\r\n        require(shipment.status == Status.InTransit, \"Shipment not in transit\");\r\n        require(block.timestamp > shipment.deliveryDeadline, \"Deadline not passed\");\r\n        \r\n        shipment.status = Status.Completed;\r\n        shipment.isPaid = true;\r\n        \r\n        payable(shipment.receiver).transfer(shipment.value);\r\n        \r\n        emit PaymentReleased(_shipmentId, shipment.value);\r\n        emit ShipmentCompleted(_shipmentId, block.timestamp);\r\n    }\r\n    \r\n    // Helper function to view shipment details\r\n    function getShipment(uint256 _shipmentId) public view returns (\r\n        address sender,\r\n        address receiver,\r\n        uint256 productId,\r\n        uint256 value,\r\n        uint256 deliveryDeadline,\r\n        Status status,\r\n        bool isPaid\r\n    ) {\r\n        Shipment storage shipment = shipments[_shipmentId];\r\n        return (\r\n            shipment.sender,\r\n            shipment.receiver,\r\n            shipment.productId,\r\n            shipment.value,\r\n            shipment.deliveryDeadline,\r\n            shipment.status,\r\n            shipment.isPaid\r\n        );\r\n    }\r\n}",
  "sourcePath": "D:\\Projects\\BlockchainSCM\\contracts\\contracts\\SupplyChainAgreement.sol",
  "compiler": {
    "name": "solc",
    "version": "0.8.19+commit.7dd6d404.Emscripten.clang"
  },
  "schemaVersion": "3.4.16",
  "updatedAt": "2025-04-14T14:00:18.646Z",
  "networkType": "ethereum",
  "devdoc": {
    "kind": "dev",
    "methods": {},
    "version": 1
  },
  "userdoc": {
    "kind": "user",
    "methods": {},
    "version": 1
  }
}